{
	"contracts/HotelRoom.sol": {
		"HotelRoom": {
			"abi": [
				{
					"inputs": [],
					"stateMutability": "nonpayable",
					"type": "constructor"
				},
				{
					"anonymous": false,
					"inputs": [
						{
							"indexed": false,
							"internalType": "address",
							"name": "_occupant",
							"type": "address"
						},
						{
							"indexed": false,
							"internalType": "uint256",
							"name": "_value",
							"type": "uint256"
						}
					],
					"name": "Occupy",
					"type": "event"
				},
				{
					"inputs": [],
					"name": "CurrentStatuses",
					"outputs": [
						{
							"internalType": "enum HotelRoom.Statuses",
							"name": "",
							"type": "uint8"
						}
					],
					"stateMutability": "view",
					"type": "function"
				},
				{
					"inputs": [],
					"name": "book",
					"outputs": [],
					"stateMutability": "payable",
					"type": "function"
				},
				{
					"inputs": [],
					"name": "owner",
					"outputs": [
						{
							"internalType": "address payable",
							"name": "",
							"type": "address"
						}
					],
					"stateMutability": "view",
					"type": "function"
				}
			],
			"devdoc": {
				"kind": "dev",
				"methods": {},
				"version": 1
			},
			"evm": {
				"assembly": "    /* \"contracts/HotelRoom.sol\":64:1042  contract HotelRoom {\r... */\n  mstore(0x40, 0x80)\n    /* \"contracts/HotelRoom.sol\":314:418  constructor() {\r... */\n  callvalue\n  dup1\n  iszero\n  tag_1\n  jumpi\n  0x00\n  dup1\n  revert\ntag_1:\n  pop\n    /* \"contracts/HotelRoom.sol\":355:365  msg.sender */\n  caller\n    /* \"contracts/HotelRoom.sol\":339:344  owner */\n  0x00\n  dup1\n    /* \"contracts/HotelRoom.sol\":339:366  owner = payable(msg.sender) */\n  0x0100\n  exp\n  dup2\n  sload\n  dup2\n  0xffffffffffffffffffffffffffffffffffffffff\n  mul\n  not\n  and\n  swap1\n  dup4\n  0xffffffffffffffffffffffffffffffffffffffff\n  and\n  mul\n  or\n  swap1\n  sstore\n  pop\n    /* \"contracts/HotelRoom.sol\":395:410  Statuses.Vacant */\n  0x00\n    /* \"contracts/HotelRoom.sol\":377:392  CurrentStatuses */\n  dup1\n  0x14\n    /* \"contracts/HotelRoom.sol\":377:410  CurrentStatuses = Statuses.Vacant */\n  0x0100\n  exp\n  dup2\n  sload\n  dup2\n  0xff\n  mul\n  not\n  and\n  swap1\n  dup4\n  0x01\n  dup2\n  gt\n  iszero\n  tag_4\n  jumpi\n  tag_5\n  tag_6\n  jump\t// in\ntag_5:\ntag_4:\n  mul\n  or\n  swap1\n  sstore\n  pop\n    /* \"contracts/HotelRoom.sol\":64:1042  contract HotelRoom {\r... */\n  jump(tag_7)\n    /* \"#utility.yul\":7:187   */\ntag_6:\n    /* \"#utility.yul\":55:132   */\n  0x4e487b7100000000000000000000000000000000000000000000000000000000\n    /* \"#utility.yul\":52:53   */\n  0x00\n    /* \"#utility.yul\":45:133   */\n  mstore\n    /* \"#utility.yul\":152:156   */\n  0x21\n    /* \"#utility.yul\":149:150   */\n  0x04\n    /* \"#utility.yul\":142:157   */\n  mstore\n    /* \"#utility.yul\":176:180   */\n  0x24\n    /* \"#utility.yul\":173:174   */\n  0x00\n    /* \"#utility.yul\":166:181   */\n  revert\n    /* \"contracts/HotelRoom.sol\":64:1042  contract HotelRoom {\r... */\ntag_7:\n  dataSize(sub_0)\n  dup1\n  dataOffset(sub_0)\n  0x00\n  codecopy\n  0x00\n  return\nstop\n\nsub_0: assembly {\n        /* \"contracts/HotelRoom.sol\":64:1042  contract HotelRoom {\r... */\n      mstore(0x40, 0x80)\n      jumpi(tag_1, lt(calldatasize, 0x04))\n      shr(0xe0, calldataload(0x00))\n      dup1\n      0x05a8da72\n      eq\n      tag_2\n      jumpi\n      dup1\n      0x3123ce1a\n      eq\n      tag_3\n      jumpi\n      dup1\n      0x8da5cb5b\n      eq\n      tag_4\n      jumpi\n    tag_1:\n      0x00\n      dup1\n      revert\n        /* \"contracts/HotelRoom.sol\":770:1035  function book() public payable  onlyWhileVacant costs(2 ether) {\r... */\n    tag_2:\n      tag_5\n      tag_6\n      jump\t// in\n    tag_5:\n      stop\n        /* \"contracts/HotelRoom.sol\":181:212  Statuses public CurrentStatuses */\n    tag_3:\n      callvalue\n      dup1\n      iszero\n      tag_7\n      jumpi\n      0x00\n      dup1\n      revert\n    tag_7:\n      pop\n      tag_8\n      tag_9\n      jump\t// in\n    tag_8:\n      mload(0x40)\n      tag_10\n      swap2\n      swap1\n      tag_11\n      jump\t// in\n    tag_10:\n      mload(0x40)\n      dup1\n      swap2\n      sub\n      swap1\n      return\n        /* \"contracts/HotelRoom.sol\":92:120  address payable public owner */\n    tag_4:\n      callvalue\n      dup1\n      iszero\n      tag_12\n      jumpi\n      0x00\n      dup1\n      revert\n    tag_12:\n      pop\n      tag_13\n      tag_14\n      jump\t// in\n    tag_13:\n      mload(0x40)\n      tag_15\n      swap2\n      swap1\n      tag_16\n      jump\t// in\n    tag_15:\n      mload(0x40)\n      dup1\n      swap2\n      sub\n      swap1\n      return\n        /* \"contracts/HotelRoom.sol\":770:1035  function book() public payable  onlyWhileVacant costs(2 ether) {\r... */\n    tag_6:\n        /* \"contracts/HotelRoom.sol\":515:530  Statuses.Vacant */\n      0x00\n        /* \"contracts/HotelRoom.sol\":496:530  CurrentStatuses == Statuses.Vacant */\n      0x01\n      dup2\n      gt\n      iszero\n      tag_18\n      jumpi\n      tag_19\n      tag_20\n      jump\t// in\n    tag_19:\n    tag_18:\n        /* \"contracts/HotelRoom.sol\":496:511  CurrentStatuses */\n      0x00\n      0x14\n      swap1\n      sload\n      swap1\n      0x0100\n      exp\n      swap1\n      div\n      0xff\n      and\n        /* \"contracts/HotelRoom.sol\":496:530  CurrentStatuses == Statuses.Vacant */\n      0x01\n      dup2\n      gt\n      iszero\n      tag_21\n      jumpi\n      tag_22\n      tag_20\n      jump\t// in\n    tag_22:\n    tag_21:\n      eq\n        /* \"contracts/HotelRoom.sol\":488:554  require(CurrentStatuses == Statuses.Vacant, \"Currently occupied.\") */\n      tag_23\n      jumpi\n      mload(0x40)\n      0x08c379a000000000000000000000000000000000000000000000000000000000\n      dup2\n      mstore\n      0x04\n      add\n      tag_24\n      swap1\n      tag_25\n      jump\t// in\n    tag_24:\n      mload(0x40)\n      dup1\n      swap2\n      sub\n      swap1\n      revert\n    tag_23:\n        /* \"contracts/HotelRoom.sol\":824:831  2 ether */\n      0x1bc16d674ec80000\n        /* \"contracts/HotelRoom.sol\":666:673  _amount */\n      dup1\n        /* \"contracts/HotelRoom.sol\":653:662  msg.value */\n      callvalue\n        /* \"contracts/HotelRoom.sol\":653:673  msg.value >= _amount */\n      lt\n      iszero\n        /* \"contracts/HotelRoom.sol\":645:704  require(msg.value >= _amount, \"Not enough ether provided.\") */\n      tag_27\n      jumpi\n      mload(0x40)\n      0x08c379a000000000000000000000000000000000000000000000000000000000\n      dup2\n      mstore\n      0x04\n      add\n      tag_28\n      swap1\n      tag_29\n      jump\t// in\n    tag_28:\n      mload(0x40)\n      dup1\n      swap2\n      sub\n      swap1\n      revert\n    tag_27:\n        /* \"contracts/HotelRoom.sol\":862:879  Statuses.Occupied */\n      0x01\n        /* \"contracts/HotelRoom.sol\":844:859  CurrentStatuses */\n      0x00\n      0x14\n        /* \"contracts/HotelRoom.sol\":844:879  CurrentStatuses = Statuses.Occupied */\n      0x0100\n      exp\n      dup2\n      sload\n      dup2\n      0xff\n      mul\n      not\n      and\n      swap1\n      dup4\n      0x01\n      dup2\n      gt\n      iszero\n      tag_31\n      jumpi\n      tag_32\n      tag_20\n      jump\t// in\n    tag_32:\n    tag_31:\n      mul\n      or\n      swap1\n      sstore\n      pop\n        /* \"contracts/HotelRoom.sol\":891:900  bool sent */\n      0x00\n        /* \"contracts/HotelRoom.sol\":902:919  bytes memory data */\n      dup1\n        /* \"contracts/HotelRoom.sol\":923:928  owner */\n      0x00\n      dup1\n      sload\n      swap1\n      0x0100\n      exp\n      swap1\n      div\n      0xffffffffffffffffffffffffffffffffffffffff\n      and\n        /* \"contracts/HotelRoom.sol\":923:933  owner.call */\n      0xffffffffffffffffffffffffffffffffffffffff\n      and\n        /* \"contracts/HotelRoom.sol\":943:952  msg.value */\n      callvalue\n        /* \"contracts/HotelRoom.sol\":923:958  owner.call { value: msg.value }(\"\") */\n      mload(0x40)\n      tag_33\n      swap1\n      tag_34\n      jump\t// in\n    tag_33:\n      0x00\n      mload(0x40)\n      dup1\n      dup4\n      sub\n      dup2\n      dup6\n      dup8\n      gas\n      call\n      swap3\n      pop\n      pop\n      pop\n      returndatasize\n      dup1\n      0x00\n      dup2\n      eq\n      tag_37\n      jumpi\n      mload(0x40)\n      swap2\n      pop\n      and(add(returndatasize, 0x3f), not(0x1f))\n      dup3\n      add\n      0x40\n      mstore\n      returndatasize\n      dup3\n      mstore\n      returndatasize\n      0x00\n      0x20\n      dup5\n      add\n      returndatacopy\n      jump(tag_36)\n    tag_37:\n      0x60\n      swap2\n      pop\n    tag_36:\n      pop\n        /* \"contracts/HotelRoom.sol\":890:958  (bool sent, bytes memory data) = owner.call { value: msg.value }(\"\") */\n      swap2\n      pop\n      swap2\n      pop\n        /* \"contracts/HotelRoom.sol\":977:981  true */\n      0x01\n        /* \"contracts/HotelRoom.sol\":969:982  require(true) */\n      tag_38\n      jumpi\n      0x00\n      dup1\n      revert\n    tag_38:\n        /* \"contracts/HotelRoom.sol\":998:1027  Occupy(msg.sender, msg.value) */\n      0xba951166d42eb077151bdecb7cf6027562f04f0143b0c141b1bb0a33eef5d693\n        /* \"contracts/HotelRoom.sol\":1005:1015  msg.sender */\n      caller\n        /* \"contracts/HotelRoom.sol\":1017:1026  msg.value */\n      callvalue\n        /* \"contracts/HotelRoom.sol\":998:1027  Occupy(msg.sender, msg.value) */\n      mload(0x40)\n      tag_39\n      swap3\n      swap2\n      swap1\n      tag_40\n      jump\t// in\n    tag_39:\n      mload(0x40)\n      dup1\n      swap2\n      sub\n      swap1\n      log1\n        /* \"contracts/HotelRoom.sol\":833:1035  {\r... */\n      pop\n      pop\n        /* \"contracts/HotelRoom.sol\":565:566  _ */\n      pop\n        /* \"contracts/HotelRoom.sol\":770:1035  function book() public payable  onlyWhileVacant costs(2 ether) {\r... */\n      jump\t// out\n        /* \"contracts/HotelRoom.sol\":181:212  Statuses public CurrentStatuses */\n    tag_9:\n      0x00\n      0x14\n      swap1\n      sload\n      swap1\n      0x0100\n      exp\n      swap1\n      div\n      0xff\n      and\n      dup2\n      jump\t// out\n        /* \"contracts/HotelRoom.sol\":92:120  address payable public owner */\n    tag_14:\n      0x00\n      dup1\n      sload\n      swap1\n      0x0100\n      exp\n      swap1\n      div\n      0xffffffffffffffffffffffffffffffffffffffff\n      and\n      dup2\n      jump\t// out\n        /* \"#utility.yul\":7:149   */\n    tag_42:\n        /* \"#utility.yul\":110:142   */\n      tag_44\n        /* \"#utility.yul\":136:141   */\n      dup2\n        /* \"#utility.yul\":110:142   */\n      tag_45\n      jump\t// in\n    tag_44:\n        /* \"#utility.yul\":105:108   */\n      dup3\n        /* \"#utility.yul\":98:143   */\n      mstore\n        /* \"#utility.yul\":7:149   */\n      pop\n      pop\n      jump\t// out\n        /* \"#utility.yul\":155:273   */\n    tag_46:\n        /* \"#utility.yul\":242:266   */\n      tag_48\n        /* \"#utility.yul\":260:265   */\n      dup2\n        /* \"#utility.yul\":242:266   */\n      tag_49\n      jump\t// in\n    tag_48:\n        /* \"#utility.yul\":237:240   */\n      dup3\n        /* \"#utility.yul\":230:267   */\n      mstore\n        /* \"#utility.yul\":155:273   */\n      pop\n      pop\n      jump\t// out\n        /* \"#utility.yul\":279:426   */\n    tag_50:\n        /* \"#utility.yul\":374:419   */\n      tag_52\n        /* \"#utility.yul\":413:418   */\n      dup2\n        /* \"#utility.yul\":374:419   */\n      tag_53\n      jump\t// in\n    tag_52:\n        /* \"#utility.yul\":369:372   */\n      dup3\n        /* \"#utility.yul\":362:420   */\n      mstore\n        /* \"#utility.yul\":279:426   */\n      pop\n      pop\n      jump\t// out\n        /* \"#utility.yul\":432:798   */\n    tag_54:\n        /* \"#utility.yul\":574:577   */\n      0x00\n        /* \"#utility.yul\":595:662   */\n      tag_56\n        /* \"#utility.yul\":659:661   */\n      0x1a\n        /* \"#utility.yul\":654:657   */\n      dup4\n        /* \"#utility.yul\":595:662   */\n      tag_57\n      jump\t// in\n    tag_56:\n        /* \"#utility.yul\":588:662   */\n      swap2\n      pop\n        /* \"#utility.yul\":671:764   */\n      tag_58\n        /* \"#utility.yul\":760:763   */\n      dup3\n        /* \"#utility.yul\":671:764   */\n      tag_59\n      jump\t// in\n    tag_58:\n        /* \"#utility.yul\":789:791   */\n      0x20\n        /* \"#utility.yul\":784:787   */\n      dup3\n        /* \"#utility.yul\":780:792   */\n      add\n        /* \"#utility.yul\":773:792   */\n      swap1\n      pop\n        /* \"#utility.yul\":432:798   */\n      swap2\n      swap1\n      pop\n      jump\t// out\n        /* \"#utility.yul\":804:1170   */\n    tag_60:\n        /* \"#utility.yul\":946:949   */\n      0x00\n        /* \"#utility.yul\":967:1034   */\n      tag_62\n        /* \"#utility.yul\":1031:1033   */\n      0x13\n        /* \"#utility.yul\":1026:1029   */\n      dup4\n        /* \"#utility.yul\":967:1034   */\n      tag_57\n      jump\t// in\n    tag_62:\n        /* \"#utility.yul\":960:1034   */\n      swap2\n      pop\n        /* \"#utility.yul\":1043:1136   */\n      tag_63\n        /* \"#utility.yul\":1132:1135   */\n      dup3\n        /* \"#utility.yul\":1043:1136   */\n      tag_64\n      jump\t// in\n    tag_63:\n        /* \"#utility.yul\":1161:1163   */\n      0x20\n        /* \"#utility.yul\":1156:1159   */\n      dup3\n        /* \"#utility.yul\":1152:1164   */\n      add\n        /* \"#utility.yul\":1145:1164   */\n      swap1\n      pop\n        /* \"#utility.yul\":804:1170   */\n      swap2\n      swap1\n      pop\n      jump\t// out\n        /* \"#utility.yul\":1176:1574   */\n    tag_65:\n        /* \"#utility.yul\":1335:1338   */\n      0x00\n        /* \"#utility.yul\":1356:1439   */\n      tag_67\n        /* \"#utility.yul\":1437:1438   */\n      0x00\n        /* \"#utility.yul\":1432:1435   */\n      dup4\n        /* \"#utility.yul\":1356:1439   */\n      tag_68\n      jump\t// in\n    tag_67:\n        /* \"#utility.yul\":1349:1439   */\n      swap2\n      pop\n        /* \"#utility.yul\":1448:1541   */\n      tag_69\n        /* \"#utility.yul\":1537:1540   */\n      dup3\n        /* \"#utility.yul\":1448:1541   */\n      tag_70\n      jump\t// in\n    tag_69:\n        /* \"#utility.yul\":1566:1567   */\n      0x00\n        /* \"#utility.yul\":1561:1564   */\n      dup3\n        /* \"#utility.yul\":1557:1568   */\n      add\n        /* \"#utility.yul\":1550:1568   */\n      swap1\n      pop\n        /* \"#utility.yul\":1176:1574   */\n      swap2\n      swap1\n      pop\n      jump\t// out\n        /* \"#utility.yul\":1580:1698   */\n    tag_71:\n        /* \"#utility.yul\":1667:1691   */\n      tag_73\n        /* \"#utility.yul\":1685:1690   */\n      dup2\n        /* \"#utility.yul\":1667:1691   */\n      tag_74\n      jump\t// in\n    tag_73:\n        /* \"#utility.yul\":1662:1665   */\n      dup3\n        /* \"#utility.yul\":1655:1692   */\n      mstore\n        /* \"#utility.yul\":1580:1698   */\n      pop\n      pop\n      jump\t// out\n        /* \"#utility.yul\":1704:2083   */\n    tag_34:\n        /* \"#utility.yul\":1888:1891   */\n      0x00\n        /* \"#utility.yul\":1910:2057   */\n      tag_76\n        /* \"#utility.yul\":2053:2056   */\n      dup3\n        /* \"#utility.yul\":1910:2057   */\n      tag_65\n      jump\t// in\n    tag_76:\n        /* \"#utility.yul\":1903:2057   */\n      swap2\n      pop\n        /* \"#utility.yul\":2074:2077   */\n      dup2\n        /* \"#utility.yul\":2067:2077   */\n      swap1\n      pop\n        /* \"#utility.yul\":1704:2083   */\n      swap2\n      swap1\n      pop\n      jump\t// out\n        /* \"#utility.yul\":2089:2343   */\n    tag_16:\n        /* \"#utility.yul\":2198:2202   */\n      0x00\n        /* \"#utility.yul\":2236:2238   */\n      0x20\n        /* \"#utility.yul\":2225:2234   */\n      dup3\n        /* \"#utility.yul\":2221:2239   */\n      add\n        /* \"#utility.yul\":2213:2239   */\n      swap1\n      pop\n        /* \"#utility.yul\":2249:2336   */\n      tag_78\n        /* \"#utility.yul\":2333:2334   */\n      0x00\n        /* \"#utility.yul\":2322:2331   */\n      dup4\n        /* \"#utility.yul\":2318:2335   */\n      add\n        /* \"#utility.yul\":2309:2315   */\n      dup5\n        /* \"#utility.yul\":2249:2336   */\n      tag_42\n      jump\t// in\n    tag_78:\n        /* \"#utility.yul\":2089:2343   */\n      swap3\n      swap2\n      pop\n      pop\n      jump\t// out\n        /* \"#utility.yul\":2349:2681   */\n    tag_40:\n        /* \"#utility.yul\":2470:2474   */\n      0x00\n        /* \"#utility.yul\":2508:2510   */\n      0x40\n        /* \"#utility.yul\":2497:2506   */\n      dup3\n        /* \"#utility.yul\":2493:2511   */\n      add\n        /* \"#utility.yul\":2485:2511   */\n      swap1\n      pop\n        /* \"#utility.yul\":2521:2592   */\n      tag_80\n        /* \"#utility.yul\":2589:2590   */\n      0x00\n        /* \"#utility.yul\":2578:2587   */\n      dup4\n        /* \"#utility.yul\":2574:2591   */\n      add\n        /* \"#utility.yul\":2565:2571   */\n      dup6\n        /* \"#utility.yul\":2521:2592   */\n      tag_46\n      jump\t// in\n    tag_80:\n        /* \"#utility.yul\":2602:2674   */\n      tag_81\n        /* \"#utility.yul\":2670:2672   */\n      0x20\n        /* \"#utility.yul\":2659:2668   */\n      dup4\n        /* \"#utility.yul\":2655:2673   */\n      add\n        /* \"#utility.yul\":2646:2652   */\n      dup5\n        /* \"#utility.yul\":2602:2674   */\n      tag_71\n      jump\t// in\n    tag_81:\n        /* \"#utility.yul\":2349:2681   */\n      swap4\n      swap3\n      pop\n      pop\n      pop\n      jump\t// out\n        /* \"#utility.yul\":2687:2925   */\n    tag_11:\n        /* \"#utility.yul\":2788:2792   */\n      0x00\n        /* \"#utility.yul\":2826:2828   */\n      0x20\n        /* \"#utility.yul\":2815:2824   */\n      dup3\n        /* \"#utility.yul\":2811:2829   */\n      add\n        /* \"#utility.yul\":2803:2829   */\n      swap1\n      pop\n        /* \"#utility.yul\":2839:2918   */\n      tag_83\n        /* \"#utility.yul\":2915:2916   */\n      0x00\n        /* \"#utility.yul\":2904:2913   */\n      dup4\n        /* \"#utility.yul\":2900:2917   */\n      add\n        /* \"#utility.yul\":2891:2897   */\n      dup5\n        /* \"#utility.yul\":2839:2918   */\n      tag_50\n      jump\t// in\n    tag_83:\n        /* \"#utility.yul\":2687:2925   */\n      swap3\n      swap2\n      pop\n      pop\n      jump\t// out\n        /* \"#utility.yul\":2931:3350   */\n    tag_29:\n        /* \"#utility.yul\":3097:3101   */\n      0x00\n        /* \"#utility.yul\":3135:3137   */\n      0x20\n        /* \"#utility.yul\":3124:3133   */\n      dup3\n        /* \"#utility.yul\":3120:3138   */\n      add\n        /* \"#utility.yul\":3112:3138   */\n      swap1\n      pop\n        /* \"#utility.yul\":3184:3193   */\n      dup2\n        /* \"#utility.yul\":3178:3182   */\n      dup2\n        /* \"#utility.yul\":3174:3194   */\n      sub\n        /* \"#utility.yul\":3170:3171   */\n      0x00\n        /* \"#utility.yul\":3159:3168   */\n      dup4\n        /* \"#utility.yul\":3155:3172   */\n      add\n        /* \"#utility.yul\":3148:3195   */\n      mstore\n        /* \"#utility.yul\":3212:3343   */\n      tag_85\n        /* \"#utility.yul\":3338:3342   */\n      dup2\n        /* \"#utility.yul\":3212:3343   */\n      tag_54\n      jump\t// in\n    tag_85:\n        /* \"#utility.yul\":3204:3343   */\n      swap1\n      pop\n        /* \"#utility.yul\":2931:3350   */\n      swap2\n      swap1\n      pop\n      jump\t// out\n        /* \"#utility.yul\":3356:3775   */\n    tag_25:\n        /* \"#utility.yul\":3522:3526   */\n      0x00\n        /* \"#utility.yul\":3560:3562   */\n      0x20\n        /* \"#utility.yul\":3549:3558   */\n      dup3\n        /* \"#utility.yul\":3545:3563   */\n      add\n        /* \"#utility.yul\":3537:3563   */\n      swap1\n      pop\n        /* \"#utility.yul\":3609:3618   */\n      dup2\n        /* \"#utility.yul\":3603:3607   */\n      dup2\n        /* \"#utility.yul\":3599:3619   */\n      sub\n        /* \"#utility.yul\":3595:3596   */\n      0x00\n        /* \"#utility.yul\":3584:3593   */\n      dup4\n        /* \"#utility.yul\":3580:3597   */\n      add\n        /* \"#utility.yul\":3573:3620   */\n      mstore\n        /* \"#utility.yul\":3637:3768   */\n      tag_87\n        /* \"#utility.yul\":3763:3767   */\n      dup2\n        /* \"#utility.yul\":3637:3768   */\n      tag_60\n      jump\t// in\n    tag_87:\n        /* \"#utility.yul\":3629:3768   */\n      swap1\n      pop\n        /* \"#utility.yul\":3356:3775   */\n      swap2\n      swap1\n      pop\n      jump\t// out\n        /* \"#utility.yul\":3781:3928   */\n    tag_68:\n        /* \"#utility.yul\":3882:3893   */\n      0x00\n        /* \"#utility.yul\":3919:3922   */\n      dup2\n        /* \"#utility.yul\":3904:3922   */\n      swap1\n      pop\n        /* \"#utility.yul\":3781:3928   */\n      swap3\n      swap2\n      pop\n      pop\n      jump\t// out\n        /* \"#utility.yul\":3934:4103   */\n    tag_57:\n        /* \"#utility.yul\":4018:4029   */\n      0x00\n        /* \"#utility.yul\":4052:4058   */\n      dup3\n        /* \"#utility.yul\":4047:4050   */\n      dup3\n        /* \"#utility.yul\":4040:4059   */\n      mstore\n        /* \"#utility.yul\":4092:4096   */\n      0x20\n        /* \"#utility.yul\":4087:4090   */\n      dup3\n        /* \"#utility.yul\":4083:4097   */\n      add\n        /* \"#utility.yul\":4068:4097   */\n      swap1\n      pop\n        /* \"#utility.yul\":3934:4103   */\n      swap3\n      swap2\n      pop\n      pop\n      jump\t// out\n        /* \"#utility.yul\":4109:4205   */\n    tag_49:\n        /* \"#utility.yul\":4146:4153   */\n      0x00\n        /* \"#utility.yul\":4175:4199   */\n      tag_91\n        /* \"#utility.yul\":4193:4198   */\n      dup3\n        /* \"#utility.yul\":4175:4199   */\n      tag_92\n      jump\t// in\n    tag_91:\n        /* \"#utility.yul\":4164:4199   */\n      swap1\n      pop\n        /* \"#utility.yul\":4109:4205   */\n      swap2\n      swap1\n      pop\n      jump\t// out\n        /* \"#utility.yul\":4211:4315   */\n    tag_45:\n        /* \"#utility.yul\":4256:4263   */\n      0x00\n        /* \"#utility.yul\":4285:4309   */\n      tag_94\n        /* \"#utility.yul\":4303:4308   */\n      dup3\n        /* \"#utility.yul\":4285:4309   */\n      tag_92\n      jump\t// in\n    tag_94:\n        /* \"#utility.yul\":4274:4309   */\n      swap1\n      pop\n        /* \"#utility.yul\":4211:4315   */\n      swap2\n      swap1\n      pop\n      jump\t// out\n        /* \"#utility.yul\":4321:4452   */\n    tag_95:\n        /* \"#utility.yul\":4368:4375   */\n      0x00\n        /* \"#utility.yul\":4397:4402   */\n      dup2\n        /* \"#utility.yul\":4386:4402   */\n      swap1\n      pop\n        /* \"#utility.yul\":4403:4446   */\n      tag_97\n        /* \"#utility.yul\":4440:4445   */\n      dup3\n        /* \"#utility.yul\":4403:4446   */\n      tag_98\n      jump\t// in\n    tag_97:\n        /* \"#utility.yul\":4321:4452   */\n      swap2\n      swap1\n      pop\n      jump\t// out\n        /* \"#utility.yul\":4458:4584   */\n    tag_92:\n        /* \"#utility.yul\":4495:4502   */\n      0x00\n        /* \"#utility.yul\":4535:4577   */\n      0xffffffffffffffffffffffffffffffffffffffff\n        /* \"#utility.yul\":4528:4533   */\n      dup3\n        /* \"#utility.yul\":4524:4578   */\n      and\n        /* \"#utility.yul\":4513:4578   */\n      swap1\n      pop\n        /* \"#utility.yul\":4458:4584   */\n      swap2\n      swap1\n      pop\n      jump\t// out\n        /* \"#utility.yul\":4590:4667   */\n    tag_74:\n        /* \"#utility.yul\":4627:4634   */\n      0x00\n        /* \"#utility.yul\":4656:4661   */\n      dup2\n        /* \"#utility.yul\":4645:4661   */\n      swap1\n      pop\n        /* \"#utility.yul\":4590:4667   */\n      swap2\n      swap1\n      pop\n      jump\t// out\n        /* \"#utility.yul\":4673:4804   */\n    tag_53:\n        /* \"#utility.yul\":4731:4740   */\n      0x00\n        /* \"#utility.yul\":4764:4798   */\n      tag_102\n        /* \"#utility.yul\":4792:4797   */\n      dup3\n        /* \"#utility.yul\":4764:4798   */\n      tag_95\n      jump\t// in\n    tag_102:\n        /* \"#utility.yul\":4751:4798   */\n      swap1\n      pop\n        /* \"#utility.yul\":4673:4804   */\n      swap2\n      swap1\n      pop\n      jump\t// out\n        /* \"#utility.yul\":4810:4990   */\n    tag_20:\n        /* \"#utility.yul\":4858:4935   */\n      0x4e487b7100000000000000000000000000000000000000000000000000000000\n        /* \"#utility.yul\":4855:4856   */\n      0x00\n        /* \"#utility.yul\":4848:4936   */\n      mstore\n        /* \"#utility.yul\":4955:4959   */\n      0x21\n        /* \"#utility.yul\":4952:4953   */\n      0x04\n        /* \"#utility.yul\":4945:4960   */\n      mstore\n        /* \"#utility.yul\":4979:4983   */\n      0x24\n        /* \"#utility.yul\":4976:4977   */\n      0x00\n        /* \"#utility.yul\":4969:4984   */\n      revert\n        /* \"#utility.yul\":4996:5172   */\n    tag_59:\n        /* \"#utility.yul\":5136:5164   */\n      0x4e6f7420656e6f7567682065746865722070726f76696465642e000000000000\n        /* \"#utility.yul\":5132:5133   */\n      0x00\n        /* \"#utility.yul\":5124:5130   */\n      dup3\n        /* \"#utility.yul\":5120:5134   */\n      add\n        /* \"#utility.yul\":5113:5165   */\n      mstore\n        /* \"#utility.yul\":4996:5172   */\n      pop\n      jump\t// out\n        /* \"#utility.yul\":5178:5347   */\n    tag_64:\n        /* \"#utility.yul\":5318:5339   */\n      0x43757272656e746c79206f636375706965642e00000000000000000000000000\n        /* \"#utility.yul\":5314:5315   */\n      0x00\n        /* \"#utility.yul\":5306:5312   */\n      dup3\n        /* \"#utility.yul\":5302:5316   */\n      add\n        /* \"#utility.yul\":5295:5340   */\n      mstore\n        /* \"#utility.yul\":5178:5347   */\n      pop\n      jump\t// out\n        /* \"#utility.yul\":5353:5467   */\n    tag_70:\n      pop\n      jump\t// out\n        /* \"#utility.yul\":5473:5588   */\n    tag_98:\n        /* \"#utility.yul\":5556:5557   */\n      0x02\n        /* \"#utility.yul\":5549:5554   */\n      dup2\n        /* \"#utility.yul\":5546:5558   */\n      lt\n        /* \"#utility.yul\":5536:5582   */\n      tag_108\n      jumpi\n        /* \"#utility.yul\":5562:5580   */\n      tag_109\n      tag_20\n      jump\t// in\n    tag_109:\n        /* \"#utility.yul\":5536:5582   */\n    tag_108:\n        /* \"#utility.yul\":5473:5588   */\n      pop\n      jump\t// out\n\n    auxdata: 0xa2646970667358221220e7a86fb63e677bfe412f04b062d264b2f1fd38c82ba6bca60c51f5030bc433af64736f6c63430008070033\n}\n",
				"bytecode": {
					"linkReferences": {},
					"object": "608060405234801561001057600080fd5b50336000806101000a81548173ffffffffffffffffffffffffffffffffffffffff021916908373ffffffffffffffffffffffffffffffffffffffff16021790555060008060146101000a81548160ff0219169083600181111561007657610075610080565b5b02179055506100af565b7f4e487b7100000000000000000000000000000000000000000000000000000000600052602160045260246000fd5b61054a806100be6000396000f3fe6080604052600436106100345760003560e01c806305a8da72146100395780633123ce1a146100435780638da5cb5b1461006e575b600080fd5b610041610099565b005b34801561004f57600080fd5b5061005861025d565b6040516100659190610392565b60405180910390f35b34801561007a57600080fd5b50610083610270565b604051610090919061034e565b60405180910390f35b600060018111156100ad576100ac61047c565b5b600060149054906101000a900460ff1660018111156100cf576100ce61047c565b5b1461010f576040517f08c379a0000000000000000000000000000000000000000000000000000000008152600401610106906103cd565b60405180910390fd5b671bc16d674ec800008034101561015b576040517f08c379a0000000000000000000000000000000000000000000000000000000008152600401610152906103ad565b60405180910390fd5b6001600060146101000a81548160ff021916908360018111156101815761018061047c565b5b021790555060008060008054906101000a900473ffffffffffffffffffffffffffffffffffffffff1673ffffffffffffffffffffffffffffffffffffffff16346040516101cd90610339565b60006040518083038185875af1925050503d806000811461020a576040519150601f19603f3d011682016040523d82523d6000602084013e61020f565b606091505b5091509150600161021f57600080fd5b7fba951166d42eb077151bdecb7cf6027562f04f0143b0c141b1bb0a33eef5d6933334604051610250929190610369565b60405180910390a1505050565b600060149054906101000a900460ff1681565b60008054906101000a900473ffffffffffffffffffffffffffffffffffffffff1681565b61029d8161041b565b82525050565b6102ac81610409565b82525050565b6102bb8161046a565b82525050565b60006102ce601a836103f8565b91506102d9826104ab565b602082019050919050565b60006102f16013836103f8565b91506102fc826104d4565b602082019050919050565b60006103146000836103ed565b915061031f826104fd565b600082019050919050565b61033381610460565b82525050565b600061034482610307565b9150819050919050565b60006020820190506103636000830184610294565b92915050565b600060408201905061037e60008301856102a3565b61038b602083018461032a565b9392505050565b60006020820190506103a760008301846102b2565b92915050565b600060208201905081810360008301526103c6816102c1565b9050919050565b600060208201905081810360008301526103e6816102e4565b9050919050565b600081905092915050565b600082825260208201905092915050565b600061041482610440565b9050919050565b600061042682610440565b9050919050565b600081905061043b82610500565b919050565b600073ffffffffffffffffffffffffffffffffffffffff82169050919050565b6000819050919050565b60006104758261042d565b9050919050565b7f4e487b7100000000000000000000000000000000000000000000000000000000600052602160045260246000fd5b7f4e6f7420656e6f7567682065746865722070726f76696465642e000000000000600082015250565b7f43757272656e746c79206f636375706965642e00000000000000000000000000600082015250565b50565b600281106105115761051061047c565b5b5056fea2646970667358221220e7a86fb63e677bfe412f04b062d264b2f1fd38c82ba6bca60c51f5030bc433af64736f6c63430008070033",
					"opcodes": "PUSH1 0x80 PUSH1 0x40 MSTORE CALLVALUE DUP1 ISZERO PUSH2 0x10 JUMPI PUSH1 0x0 DUP1 REVERT JUMPDEST POP CALLER PUSH1 0x0 DUP1 PUSH2 0x100 EXP DUP2 SLOAD DUP2 PUSH20 0xFFFFFFFFFFFFFFFFFFFFFFFFFFFFFFFFFFFFFFFF MUL NOT AND SWAP1 DUP4 PUSH20 0xFFFFFFFFFFFFFFFFFFFFFFFFFFFFFFFFFFFFFFFF AND MUL OR SWAP1 SSTORE POP PUSH1 0x0 DUP1 PUSH1 0x14 PUSH2 0x100 EXP DUP2 SLOAD DUP2 PUSH1 0xFF MUL NOT AND SWAP1 DUP4 PUSH1 0x1 DUP2 GT ISZERO PUSH2 0x76 JUMPI PUSH2 0x75 PUSH2 0x80 JUMP JUMPDEST JUMPDEST MUL OR SWAP1 SSTORE POP PUSH2 0xAF JUMP JUMPDEST PUSH32 0x4E487B7100000000000000000000000000000000000000000000000000000000 PUSH1 0x0 MSTORE PUSH1 0x21 PUSH1 0x4 MSTORE PUSH1 0x24 PUSH1 0x0 REVERT JUMPDEST PUSH2 0x54A DUP1 PUSH2 0xBE PUSH1 0x0 CODECOPY PUSH1 0x0 RETURN INVALID PUSH1 0x80 PUSH1 0x40 MSTORE PUSH1 0x4 CALLDATASIZE LT PUSH2 0x34 JUMPI PUSH1 0x0 CALLDATALOAD PUSH1 0xE0 SHR DUP1 PUSH4 0x5A8DA72 EQ PUSH2 0x39 JUMPI DUP1 PUSH4 0x3123CE1A EQ PUSH2 0x43 JUMPI DUP1 PUSH4 0x8DA5CB5B EQ PUSH2 0x6E JUMPI JUMPDEST PUSH1 0x0 DUP1 REVERT JUMPDEST PUSH2 0x41 PUSH2 0x99 JUMP JUMPDEST STOP JUMPDEST CALLVALUE DUP1 ISZERO PUSH2 0x4F JUMPI PUSH1 0x0 DUP1 REVERT JUMPDEST POP PUSH2 0x58 PUSH2 0x25D JUMP JUMPDEST PUSH1 0x40 MLOAD PUSH2 0x65 SWAP2 SWAP1 PUSH2 0x392 JUMP JUMPDEST PUSH1 0x40 MLOAD DUP1 SWAP2 SUB SWAP1 RETURN JUMPDEST CALLVALUE DUP1 ISZERO PUSH2 0x7A JUMPI PUSH1 0x0 DUP1 REVERT JUMPDEST POP PUSH2 0x83 PUSH2 0x270 JUMP JUMPDEST PUSH1 0x40 MLOAD PUSH2 0x90 SWAP2 SWAP1 PUSH2 0x34E JUMP JUMPDEST PUSH1 0x40 MLOAD DUP1 SWAP2 SUB SWAP1 RETURN JUMPDEST PUSH1 0x0 PUSH1 0x1 DUP2 GT ISZERO PUSH2 0xAD JUMPI PUSH2 0xAC PUSH2 0x47C JUMP JUMPDEST JUMPDEST PUSH1 0x0 PUSH1 0x14 SWAP1 SLOAD SWAP1 PUSH2 0x100 EXP SWAP1 DIV PUSH1 0xFF AND PUSH1 0x1 DUP2 GT ISZERO PUSH2 0xCF JUMPI PUSH2 0xCE PUSH2 0x47C JUMP JUMPDEST JUMPDEST EQ PUSH2 0x10F JUMPI PUSH1 0x40 MLOAD PUSH32 0x8C379A000000000000000000000000000000000000000000000000000000000 DUP2 MSTORE PUSH1 0x4 ADD PUSH2 0x106 SWAP1 PUSH2 0x3CD JUMP JUMPDEST PUSH1 0x40 MLOAD DUP1 SWAP2 SUB SWAP1 REVERT JUMPDEST PUSH8 0x1BC16D674EC80000 DUP1 CALLVALUE LT ISZERO PUSH2 0x15B JUMPI PUSH1 0x40 MLOAD PUSH32 0x8C379A000000000000000000000000000000000000000000000000000000000 DUP2 MSTORE PUSH1 0x4 ADD PUSH2 0x152 SWAP1 PUSH2 0x3AD JUMP JUMPDEST PUSH1 0x40 MLOAD DUP1 SWAP2 SUB SWAP1 REVERT JUMPDEST PUSH1 0x1 PUSH1 0x0 PUSH1 0x14 PUSH2 0x100 EXP DUP2 SLOAD DUP2 PUSH1 0xFF MUL NOT AND SWAP1 DUP4 PUSH1 0x1 DUP2 GT ISZERO PUSH2 0x181 JUMPI PUSH2 0x180 PUSH2 0x47C JUMP JUMPDEST JUMPDEST MUL OR SWAP1 SSTORE POP PUSH1 0x0 DUP1 PUSH1 0x0 DUP1 SLOAD SWAP1 PUSH2 0x100 EXP SWAP1 DIV PUSH20 0xFFFFFFFFFFFFFFFFFFFFFFFFFFFFFFFFFFFFFFFF AND PUSH20 0xFFFFFFFFFFFFFFFFFFFFFFFFFFFFFFFFFFFFFFFF AND CALLVALUE PUSH1 0x40 MLOAD PUSH2 0x1CD SWAP1 PUSH2 0x339 JUMP JUMPDEST PUSH1 0x0 PUSH1 0x40 MLOAD DUP1 DUP4 SUB DUP2 DUP6 DUP8 GAS CALL SWAP3 POP POP POP RETURNDATASIZE DUP1 PUSH1 0x0 DUP2 EQ PUSH2 0x20A JUMPI PUSH1 0x40 MLOAD SWAP2 POP PUSH1 0x1F NOT PUSH1 0x3F RETURNDATASIZE ADD AND DUP3 ADD PUSH1 0x40 MSTORE RETURNDATASIZE DUP3 MSTORE RETURNDATASIZE PUSH1 0x0 PUSH1 0x20 DUP5 ADD RETURNDATACOPY PUSH2 0x20F JUMP JUMPDEST PUSH1 0x60 SWAP2 POP JUMPDEST POP SWAP2 POP SWAP2 POP PUSH1 0x1 PUSH2 0x21F JUMPI PUSH1 0x0 DUP1 REVERT JUMPDEST PUSH32 0xBA951166D42EB077151BDECB7CF6027562F04F0143B0C141B1BB0A33EEF5D693 CALLER CALLVALUE PUSH1 0x40 MLOAD PUSH2 0x250 SWAP3 SWAP2 SWAP1 PUSH2 0x369 JUMP JUMPDEST PUSH1 0x40 MLOAD DUP1 SWAP2 SUB SWAP1 LOG1 POP POP POP JUMP JUMPDEST PUSH1 0x0 PUSH1 0x14 SWAP1 SLOAD SWAP1 PUSH2 0x100 EXP SWAP1 DIV PUSH1 0xFF AND DUP2 JUMP JUMPDEST PUSH1 0x0 DUP1 SLOAD SWAP1 PUSH2 0x100 EXP SWAP1 DIV PUSH20 0xFFFFFFFFFFFFFFFFFFFFFFFFFFFFFFFFFFFFFFFF AND DUP2 JUMP JUMPDEST PUSH2 0x29D DUP2 PUSH2 0x41B JUMP JUMPDEST DUP3 MSTORE POP POP JUMP JUMPDEST PUSH2 0x2AC DUP2 PUSH2 0x409 JUMP JUMPDEST DUP3 MSTORE POP POP JUMP JUMPDEST PUSH2 0x2BB DUP2 PUSH2 0x46A JUMP JUMPDEST DUP3 MSTORE POP POP JUMP JUMPDEST PUSH1 0x0 PUSH2 0x2CE PUSH1 0x1A DUP4 PUSH2 0x3F8 JUMP JUMPDEST SWAP2 POP PUSH2 0x2D9 DUP3 PUSH2 0x4AB JUMP JUMPDEST PUSH1 0x20 DUP3 ADD SWAP1 POP SWAP2 SWAP1 POP JUMP JUMPDEST PUSH1 0x0 PUSH2 0x2F1 PUSH1 0x13 DUP4 PUSH2 0x3F8 JUMP JUMPDEST SWAP2 POP PUSH2 0x2FC DUP3 PUSH2 0x4D4 JUMP JUMPDEST PUSH1 0x20 DUP3 ADD SWAP1 POP SWAP2 SWAP1 POP JUMP JUMPDEST PUSH1 0x0 PUSH2 0x314 PUSH1 0x0 DUP4 PUSH2 0x3ED JUMP JUMPDEST SWAP2 POP PUSH2 0x31F DUP3 PUSH2 0x4FD JUMP JUMPDEST PUSH1 0x0 DUP3 ADD SWAP1 POP SWAP2 SWAP1 POP JUMP JUMPDEST PUSH2 0x333 DUP2 PUSH2 0x460 JUMP JUMPDEST DUP3 MSTORE POP POP JUMP JUMPDEST PUSH1 0x0 PUSH2 0x344 DUP3 PUSH2 0x307 JUMP JUMPDEST SWAP2 POP DUP2 SWAP1 POP SWAP2 SWAP1 POP JUMP JUMPDEST PUSH1 0x0 PUSH1 0x20 DUP3 ADD SWAP1 POP PUSH2 0x363 PUSH1 0x0 DUP4 ADD DUP5 PUSH2 0x294 JUMP JUMPDEST SWAP3 SWAP2 POP POP JUMP JUMPDEST PUSH1 0x0 PUSH1 0x40 DUP3 ADD SWAP1 POP PUSH2 0x37E PUSH1 0x0 DUP4 ADD DUP6 PUSH2 0x2A3 JUMP JUMPDEST PUSH2 0x38B PUSH1 0x20 DUP4 ADD DUP5 PUSH2 0x32A JUMP JUMPDEST SWAP4 SWAP3 POP POP POP JUMP JUMPDEST PUSH1 0x0 PUSH1 0x20 DUP3 ADD SWAP1 POP PUSH2 0x3A7 PUSH1 0x0 DUP4 ADD DUP5 PUSH2 0x2B2 JUMP JUMPDEST SWAP3 SWAP2 POP POP JUMP JUMPDEST PUSH1 0x0 PUSH1 0x20 DUP3 ADD SWAP1 POP DUP2 DUP2 SUB PUSH1 0x0 DUP4 ADD MSTORE PUSH2 0x3C6 DUP2 PUSH2 0x2C1 JUMP JUMPDEST SWAP1 POP SWAP2 SWAP1 POP JUMP JUMPDEST PUSH1 0x0 PUSH1 0x20 DUP3 ADD SWAP1 POP DUP2 DUP2 SUB PUSH1 0x0 DUP4 ADD MSTORE PUSH2 0x3E6 DUP2 PUSH2 0x2E4 JUMP JUMPDEST SWAP1 POP SWAP2 SWAP1 POP JUMP JUMPDEST PUSH1 0x0 DUP2 SWAP1 POP SWAP3 SWAP2 POP POP JUMP JUMPDEST PUSH1 0x0 DUP3 DUP3 MSTORE PUSH1 0x20 DUP3 ADD SWAP1 POP SWAP3 SWAP2 POP POP JUMP JUMPDEST PUSH1 0x0 PUSH2 0x414 DUP3 PUSH2 0x440 JUMP JUMPDEST SWAP1 POP SWAP2 SWAP1 POP JUMP JUMPDEST PUSH1 0x0 PUSH2 0x426 DUP3 PUSH2 0x440 JUMP JUMPDEST SWAP1 POP SWAP2 SWAP1 POP JUMP JUMPDEST PUSH1 0x0 DUP2 SWAP1 POP PUSH2 0x43B DUP3 PUSH2 0x500 JUMP JUMPDEST SWAP2 SWAP1 POP JUMP JUMPDEST PUSH1 0x0 PUSH20 0xFFFFFFFFFFFFFFFFFFFFFFFFFFFFFFFFFFFFFFFF DUP3 AND SWAP1 POP SWAP2 SWAP1 POP JUMP JUMPDEST PUSH1 0x0 DUP2 SWAP1 POP SWAP2 SWAP1 POP JUMP JUMPDEST PUSH1 0x0 PUSH2 0x475 DUP3 PUSH2 0x42D JUMP JUMPDEST SWAP1 POP SWAP2 SWAP1 POP JUMP JUMPDEST PUSH32 0x4E487B7100000000000000000000000000000000000000000000000000000000 PUSH1 0x0 MSTORE PUSH1 0x21 PUSH1 0x4 MSTORE PUSH1 0x24 PUSH1 0x0 REVERT JUMPDEST PUSH32 0x4E6F7420656E6F7567682065746865722070726F76696465642E000000000000 PUSH1 0x0 DUP3 ADD MSTORE POP JUMP JUMPDEST PUSH32 0x43757272656E746C79206F636375706965642E00000000000000000000000000 PUSH1 0x0 DUP3 ADD MSTORE POP JUMP JUMPDEST POP JUMP JUMPDEST PUSH1 0x2 DUP2 LT PUSH2 0x511 JUMPI PUSH2 0x510 PUSH2 0x47C JUMP JUMPDEST JUMPDEST POP JUMP INVALID LOG2 PUSH5 0x6970667358 0x22 SLT KECCAK256 0xE7 0xA8 PUSH16 0xB63E677BFE412F04B062D264B2F1FD38 0xC8 0x2B 0xA6 0xBC 0xA6 0xC MLOAD CREATE2 SUB SIGNEXTEND 0xC4 CALLER 0xAF PUSH5 0x736F6C6343 STOP ADDMOD SMOD STOP CALLER "
				},
				"gasEstimates": {
					"creation": {
						"codeDepositCost": "270800",
						"executionCost": "48927",
						"totalCost": "319727"
					},
					"external": {
						"CurrentStatuses()": "2610",
						"book()": "infinite",
						"owner()": "2533"
					}
				},
				"methodIdentifiers": {
					"CurrentStatuses()": "3123ce1a",
					"book()": "05a8da72",
					"owner()": "8da5cb5b"
				}
			},
			"storageLayout": {
				"storage": [
					{
						"astId": 3,
						"contract": "contracts/HotelRoom.sol:HotelRoom",
						"label": "owner",
						"offset": 0,
						"slot": "0",
						"type": "t_address_payable"
					},
					{
						"astId": 9,
						"contract": "contracts/HotelRoom.sol:HotelRoom",
						"label": "CurrentStatuses",
						"offset": 20,
						"slot": "0",
						"type": "t_enum(Statuses)6"
					}
				],
				"types": {
					"t_address_payable": {
						"encoding": "inplace",
						"label": "address payable",
						"numberOfBytes": "20"
					},
					"t_enum(Statuses)6": {
						"encoding": "inplace",
						"label": "enum HotelRoom.Statuses",
						"numberOfBytes": "1"
					}
				}
			},
			"userdoc": {
				"kind": "user",
				"methods": {},
				"version": 1
			}
		}
	}
}