{
	"contracts/Loop&Condition.sol": {
		"Loop_Condition": {
			"abi": [
				{
					"inputs": [],
					"name": "countEven",
					"outputs": [
						{
							"internalType": "uint256",
							"name": "",
							"type": "uint256"
						}
					],
					"stateMutability": "view",
					"type": "function"
				},
				{
					"inputs": [
						{
							"internalType": "uint256",
							"name": "_number",
							"type": "uint256"
						}
					],
					"name": "isEvenOrNot",
					"outputs": [
						{
							"internalType": "bool",
							"name": "",
							"type": "bool"
						}
					],
					"stateMutability": "view",
					"type": "function"
				},
				{
					"inputs": [
						{
							"internalType": "uint256",
							"name": "",
							"type": "uint256"
						}
					],
					"name": "numbers",
					"outputs": [
						{
							"internalType": "uint256",
							"name": "",
							"type": "uint256"
						}
					],
					"stateMutability": "view",
					"type": "function"
				}
			],
			"devdoc": {
				"kind": "dev",
				"methods": {},
				"version": 1
			},
			"evm": {
				"assembly": "    /* \"contracts/Loop&Condition.sol\":64:619  contract Loop_Condition {\r... */\n  mstore(0x40, 0x80)\n    /* \"contracts/Loop&Condition.sol\":101:156  uint[] public numbers = [1, 2, 3, 4, 5, 6, 7, 8, 9, 10] */\n  mload(0x40)\n  dup1\n  0x0140\n  add\n  0x40\n  mstore\n  dup1\n    /* \"contracts/Loop&Condition.sol\":126:127  1 */\n  0x01\n    /* \"contracts/Loop&Condition.sol\":101:156  uint[] public numbers = [1, 2, 3, 4, 5, 6, 7, 8, 9, 10] */\n  0xff\n  and\n  dup2\n  mstore\n  0x20\n  add\n    /* \"contracts/Loop&Condition.sol\":129:130  2 */\n  0x02\n    /* \"contracts/Loop&Condition.sol\":101:156  uint[] public numbers = [1, 2, 3, 4, 5, 6, 7, 8, 9, 10] */\n  0xff\n  and\n  dup2\n  mstore\n  0x20\n  add\n    /* \"contracts/Loop&Condition.sol\":132:133  3 */\n  0x03\n    /* \"contracts/Loop&Condition.sol\":101:156  uint[] public numbers = [1, 2, 3, 4, 5, 6, 7, 8, 9, 10] */\n  0xff\n  and\n  dup2\n  mstore\n  0x20\n  add\n    /* \"contracts/Loop&Condition.sol\":135:136  4 */\n  0x04\n    /* \"contracts/Loop&Condition.sol\":101:156  uint[] public numbers = [1, 2, 3, 4, 5, 6, 7, 8, 9, 10] */\n  0xff\n  and\n  dup2\n  mstore\n  0x20\n  add\n    /* \"contracts/Loop&Condition.sol\":138:139  5 */\n  0x05\n    /* \"contracts/Loop&Condition.sol\":101:156  uint[] public numbers = [1, 2, 3, 4, 5, 6, 7, 8, 9, 10] */\n  0xff\n  and\n  dup2\n  mstore\n  0x20\n  add\n    /* \"contracts/Loop&Condition.sol\":141:142  6 */\n  0x06\n    /* \"contracts/Loop&Condition.sol\":101:156  uint[] public numbers = [1, 2, 3, 4, 5, 6, 7, 8, 9, 10] */\n  0xff\n  and\n  dup2\n  mstore\n  0x20\n  add\n    /* \"contracts/Loop&Condition.sol\":144:145  7 */\n  0x07\n    /* \"contracts/Loop&Condition.sol\":101:156  uint[] public numbers = [1, 2, 3, 4, 5, 6, 7, 8, 9, 10] */\n  0xff\n  and\n  dup2\n  mstore\n  0x20\n  add\n    /* \"contracts/Loop&Condition.sol\":147:148  8 */\n  0x08\n    /* \"contracts/Loop&Condition.sol\":101:156  uint[] public numbers = [1, 2, 3, 4, 5, 6, 7, 8, 9, 10] */\n  0xff\n  and\n  dup2\n  mstore\n  0x20\n  add\n    /* \"contracts/Loop&Condition.sol\":150:151  9 */\n  0x09\n    /* \"contracts/Loop&Condition.sol\":101:156  uint[] public numbers = [1, 2, 3, 4, 5, 6, 7, 8, 9, 10] */\n  0xff\n  and\n  dup2\n  mstore\n  0x20\n  add\n    /* \"contracts/Loop&Condition.sol\":153:155  10 */\n  0x0a\n    /* \"contracts/Loop&Condition.sol\":101:156  uint[] public numbers = [1, 2, 3, 4, 5, 6, 7, 8, 9, 10] */\n  0xff\n  and\n  dup2\n  mstore\n  pop\n  0x00\n  swap1\n  0x0a\n  tag_1\n  swap3\n  swap2\n  swap1\n  tag_2\n  jump\t// in\ntag_1:\n  pop\n    /* \"contracts/Loop&Condition.sol\":64:619  contract Loop_Condition {\r... */\n  callvalue\n  dup1\n  iszero\n  tag_3\n  jumpi\n  0x00\n  dup1\n  revert\ntag_3:\n  pop\n  jump(tag_4)\ntag_2:\n  dup3\n  dup1\n  sload\n  dup3\n  dup3\n  sstore\n  swap1\n  0x00\n  mstore\n  keccak256(0x00, 0x20)\n  swap1\n  dup2\n  add\n  swap3\n  dup3\n  iszero\n  tag_5\n  jumpi\n  swap2\n  0x20\n  mul\n  dup3\n  add\ntag_6:\n  dup3\n  dup2\n  gt\n  iszero\n  tag_7\n  jumpi\n  dup3\n  mload\n  dup3\n  swap1\n  0xff\n  and\n  swap1\n  sstore\n  swap2\n  0x20\n  add\n  swap2\n  swap1\n  0x01\n  add\n  swap1\n  jump(tag_6)\ntag_7:\ntag_5:\n  pop\n  swap1\n  pop\n  tag_8\n  swap2\n  swap1\n  tag_9\n  jump\t// in\ntag_8:\n  pop\n  swap1\n  jump\t// out\ntag_9:\ntag_10:\n  dup1\n  dup3\n  gt\n  iszero\n  tag_11\n  jumpi\n  0x00\n  dup2\n  0x00\n  swap1\n  sstore\n  pop\n  0x01\n  add\n  jump(tag_10)\ntag_11:\n  pop\n  swap1\n  jump\t// out\ntag_4:\n  dataSize(sub_0)\n  dup1\n  dataOffset(sub_0)\n  0x00\n  codecopy\n  0x00\n  return\nstop\n\nsub_0: assembly {\n        /* \"contracts/Loop&Condition.sol\":64:619  contract Loop_Condition {\r... */\n      mstore(0x40, 0x80)\n      callvalue\n      dup1\n      iszero\n      tag_1\n      jumpi\n      0x00\n      dup1\n      revert\n    tag_1:\n      pop\n      jumpi(tag_2, lt(calldatasize, 0x04))\n      shr(0xe0, calldataload(0x00))\n      dup1\n      0x2835b848\n      eq\n      tag_3\n      jumpi\n      dup1\n      0x61cebfea\n      eq\n      tag_4\n      jumpi\n      dup1\n      0xd39fa233\n      eq\n      tag_5\n      jumpi\n    tag_2:\n      0x00\n      dup1\n      revert\n        /* \"contracts/Loop&Condition.sol\":367:614  function countEven() public view returns(uint) {\r... */\n    tag_3:\n      tag_6\n      tag_7\n      jump\t// in\n    tag_6:\n      mload(0x40)\n      tag_8\n      swap2\n      swap1\n      tag_9\n      jump\t// in\n    tag_8:\n      mload(0x40)\n      dup1\n      swap2\n      sub\n      swap1\n      return\n        /* \"contracts/Loop&Condition.sol\":165:359  function isEvenOrNot(uint _number) public view returns (bool) {\r... */\n    tag_4:\n      tag_10\n      0x04\n      dup1\n      calldatasize\n      sub\n      dup2\n      add\n      swap1\n      tag_11\n      swap2\n      swap1\n      tag_12\n      jump\t// in\n    tag_11:\n      tag_13\n      jump\t// in\n    tag_10:\n      mload(0x40)\n      tag_14\n      swap2\n      swap1\n      tag_15\n      jump\t// in\n    tag_14:\n      mload(0x40)\n      dup1\n      swap2\n      sub\n      swap1\n      return\n        /* \"contracts/Loop&Condition.sol\":101:156  uint[] public numbers = [1, 2, 3, 4, 5, 6, 7, 8, 9, 10] */\n    tag_5:\n      tag_16\n      0x04\n      dup1\n      calldatasize\n      sub\n      dup2\n      add\n      swap1\n      tag_17\n      swap2\n      swap1\n      tag_12\n      jump\t// in\n    tag_17:\n      tag_18\n      jump\t// in\n    tag_16:\n      mload(0x40)\n      tag_19\n      swap2\n      swap1\n      tag_9\n      jump\t// in\n    tag_19:\n      mload(0x40)\n      dup1\n      swap2\n      sub\n      swap1\n      return\n        /* \"contracts/Loop&Condition.sol\":367:614  function countEven() public view returns(uint) {\r... */\n    tag_7:\n        /* \"contracts/Loop&Condition.sol\":408:412  uint */\n      0x00\n        /* \"contracts/Loop&Condition.sol\":425:435  uint count */\n      dup1\n        /* \"contracts/Loop&Condition.sol\":438:439  0 */\n      0x00\n        /* \"contracts/Loop&Condition.sol\":425:439  uint count = 0 */\n      swap1\n      pop\n        /* \"contracts/Loop&Condition.sol\":455:461  uint i */\n      0x00\n        /* \"contracts/Loop&Condition.sol\":450:584  for (uint i = 0; i < numbers.length; i++){\r... */\n    tag_21:\n        /* \"contracts/Loop&Condition.sol\":471:478  numbers */\n      0x00\n        /* \"contracts/Loop&Condition.sol\":471:485  numbers.length */\n      dup1\n      sload\n      swap1\n      pop\n        /* \"contracts/Loop&Condition.sol\":467:468  i */\n      dup2\n        /* \"contracts/Loop&Condition.sol\":467:485  i < numbers.length */\n      lt\n        /* \"contracts/Loop&Condition.sol\":450:584  for (uint i = 0; i < numbers.length; i++){\r... */\n      iszero\n      tag_22\n      jumpi\n        /* \"contracts/Loop&Condition.sol\":528:529  0 */\n      0x00\n        /* \"contracts/Loop&Condition.sol\":523:524  2 */\n      0x02\n        /* \"contracts/Loop&Condition.sol\":510:517  numbers */\n      0x00\n        /* \"contracts/Loop&Condition.sol\":518:519  i */\n      dup4\n        /* \"contracts/Loop&Condition.sol\":510:520  numbers[i] */\n      dup2\n      sload\n      dup2\n      lt\n      tag_24\n      jumpi\n      tag_25\n      tag_26\n      jump\t// in\n    tag_25:\n    tag_24:\n      swap1\n      0x00\n      mstore\n      keccak256(0x00, 0x20)\n      add\n      sload\n        /* \"contracts/Loop&Condition.sol\":510:524  numbers[i] % 2 */\n      tag_28\n      swap2\n      swap1\n      tag_29\n      jump\t// in\n    tag_28:\n        /* \"contracts/Loop&Condition.sol\":510:529  numbers[i] % 2 == 0 */\n      eq\n        /* \"contracts/Loop&Condition.sol\":506:573  if (numbers[i] % 2 == 0) {\r... */\n      iszero\n      tag_30\n      jumpi\n        /* \"contracts/Loop&Condition.sol\":550:557  count++ */\n      dup2\n      dup1\n      tag_31\n      swap1\n      tag_32\n      jump\t// in\n    tag_31:\n      swap3\n      pop\n      pop\n        /* \"contracts/Loop&Condition.sol\":506:573  if (numbers[i] % 2 == 0) {\r... */\n    tag_30:\n        /* \"contracts/Loop&Condition.sol\":487:490  i++ */\n      dup1\n      dup1\n      tag_33\n      swap1\n      tag_32\n      jump\t// in\n    tag_33:\n      swap2\n      pop\n      pop\n        /* \"contracts/Loop&Condition.sol\":450:584  for (uint i = 0; i < numbers.length; i++){\r... */\n      jump(tag_21)\n    tag_22:\n      pop\n        /* \"contracts/Loop&Condition.sol\":601:606  count */\n      dup1\n        /* \"contracts/Loop&Condition.sol\":594:606  return count */\n      swap2\n      pop\n      pop\n        /* \"contracts/Loop&Condition.sol\":367:614  function countEven() public view returns(uint) {\r... */\n      swap1\n      jump\t// out\n        /* \"contracts/Loop&Condition.sol\":165:359  function isEvenOrNot(uint _number) public view returns (bool) {\r... */\n    tag_13:\n        /* \"contracts/Loop&Condition.sol\":221:225  bool */\n      0x00\n        /* \"contracts/Loop&Condition.sol\":257:258  0 */\n      dup1\n        /* \"contracts/Loop&Condition.sol\":252:253  2 */\n      0x02\n        /* \"contracts/Loop&Condition.sol\":242:249  _number */\n      dup4\n        /* \"contracts/Loop&Condition.sol\":242:253  _number % 2 */\n      tag_35\n      swap2\n      swap1\n      tag_29\n      jump\t// in\n    tag_35:\n        /* \"contracts/Loop&Condition.sol\":242:258  _number % 2 == 0 */\n      eq\n        /* \"contracts/Loop&Condition.sol\":238:352  if (_number % 2 == 0) {\r... */\n      iszero\n      tag_36\n      jumpi\n        /* \"contracts/Loop&Condition.sol\":282:286  true */\n      0x01\n        /* \"contracts/Loop&Condition.sol\":275:286  return true */\n      swap1\n      pop\n      jump(tag_34)\n        /* \"contracts/Loop&Condition.sol\":238:352  if (_number % 2 == 0) {\r... */\n    tag_36:\n        /* \"contracts/Loop&Condition.sol\":335:340  false */\n      0x00\n        /* \"contracts/Loop&Condition.sol\":328:340  return false */\n      swap1\n      pop\n        /* \"contracts/Loop&Condition.sol\":165:359  function isEvenOrNot(uint _number) public view returns (bool) {\r... */\n    tag_34:\n      swap2\n      swap1\n      pop\n      jump\t// out\n        /* \"contracts/Loop&Condition.sol\":101:156  uint[] public numbers = [1, 2, 3, 4, 5, 6, 7, 8, 9, 10] */\n    tag_18:\n      0x00\n      dup2\n      dup2\n      sload\n      dup2\n      lt\n      tag_38\n      jumpi\n      0x00\n      dup1\n      revert\n    tag_38:\n      swap1\n      0x00\n      mstore\n      keccak256(0x00, 0x20)\n      add\n      0x00\n      swap2\n      pop\n      swap1\n      pop\n      sload\n      dup2\n      jump\t// out\n        /* \"#utility.yul\":7:146   */\n    tag_41:\n        /* \"#utility.yul\":53:58   */\n      0x00\n        /* \"#utility.yul\":91:97   */\n      dup2\n        /* \"#utility.yul\":78:98   */\n      calldataload\n        /* \"#utility.yul\":69:98   */\n      swap1\n      pop\n        /* \"#utility.yul\":107:140   */\n      tag_43\n        /* \"#utility.yul\":134:139   */\n      dup2\n        /* \"#utility.yul\":107:140   */\n      tag_44\n      jump\t// in\n    tag_43:\n        /* \"#utility.yul\":7:146   */\n      swap3\n      swap2\n      pop\n      pop\n      jump\t// out\n        /* \"#utility.yul\":152:481   */\n    tag_12:\n        /* \"#utility.yul\":211:217   */\n      0x00\n        /* \"#utility.yul\":260:262   */\n      0x20\n        /* \"#utility.yul\":248:257   */\n      dup3\n        /* \"#utility.yul\":239:246   */\n      dup5\n        /* \"#utility.yul\":235:258   */\n      sub\n        /* \"#utility.yul\":231:263   */\n      slt\n        /* \"#utility.yul\":228:347   */\n      iszero\n      tag_46\n      jumpi\n        /* \"#utility.yul\":266:345   */\n      tag_47\n      tag_48\n      jump\t// in\n    tag_47:\n        /* \"#utility.yul\":228:347   */\n    tag_46:\n        /* \"#utility.yul\":386:387   */\n      0x00\n        /* \"#utility.yul\":411:464   */\n      tag_49\n        /* \"#utility.yul\":456:463   */\n      dup5\n        /* \"#utility.yul\":447:453   */\n      dup3\n        /* \"#utility.yul\":436:445   */\n      dup6\n        /* \"#utility.yul\":432:454   */\n      add\n        /* \"#utility.yul\":411:464   */\n      tag_41\n      jump\t// in\n    tag_49:\n        /* \"#utility.yul\":401:464   */\n      swap2\n      pop\n        /* \"#utility.yul\":357:474   */\n      pop\n        /* \"#utility.yul\":152:481   */\n      swap3\n      swap2\n      pop\n      pop\n      jump\t// out\n        /* \"#utility.yul\":487:596   */\n    tag_50:\n        /* \"#utility.yul\":568:589   */\n      tag_52\n        /* \"#utility.yul\":583:588   */\n      dup2\n        /* \"#utility.yul\":568:589   */\n      tag_53\n      jump\t// in\n    tag_52:\n        /* \"#utility.yul\":563:566   */\n      dup3\n        /* \"#utility.yul\":556:590   */\n      mstore\n        /* \"#utility.yul\":487:596   */\n      pop\n      pop\n      jump\t// out\n        /* \"#utility.yul\":602:720   */\n    tag_54:\n        /* \"#utility.yul\":689:713   */\n      tag_56\n        /* \"#utility.yul\":707:712   */\n      dup2\n        /* \"#utility.yul\":689:713   */\n      tag_57\n      jump\t// in\n    tag_56:\n        /* \"#utility.yul\":684:687   */\n      dup3\n        /* \"#utility.yul\":677:714   */\n      mstore\n        /* \"#utility.yul\":602:720   */\n      pop\n      pop\n      jump\t// out\n        /* \"#utility.yul\":726:936   */\n    tag_15:\n        /* \"#utility.yul\":813:817   */\n      0x00\n        /* \"#utility.yul\":851:853   */\n      0x20\n        /* \"#utility.yul\":840:849   */\n      dup3\n        /* \"#utility.yul\":836:854   */\n      add\n        /* \"#utility.yul\":828:854   */\n      swap1\n      pop\n        /* \"#utility.yul\":864:929   */\n      tag_59\n        /* \"#utility.yul\":926:927   */\n      0x00\n        /* \"#utility.yul\":915:924   */\n      dup4\n        /* \"#utility.yul\":911:928   */\n      add\n        /* \"#utility.yul\":902:908   */\n      dup5\n        /* \"#utility.yul\":864:929   */\n      tag_50\n      jump\t// in\n    tag_59:\n        /* \"#utility.yul\":726:936   */\n      swap3\n      swap2\n      pop\n      pop\n      jump\t// out\n        /* \"#utility.yul\":942:1164   */\n    tag_9:\n        /* \"#utility.yul\":1035:1039   */\n      0x00\n        /* \"#utility.yul\":1073:1075   */\n      0x20\n        /* \"#utility.yul\":1062:1071   */\n      dup3\n        /* \"#utility.yul\":1058:1076   */\n      add\n        /* \"#utility.yul\":1050:1076   */\n      swap1\n      pop\n        /* \"#utility.yul\":1086:1157   */\n      tag_61\n        /* \"#utility.yul\":1154:1155   */\n      0x00\n        /* \"#utility.yul\":1143:1152   */\n      dup4\n        /* \"#utility.yul\":1139:1156   */\n      add\n        /* \"#utility.yul\":1130:1136   */\n      dup5\n        /* \"#utility.yul\":1086:1157   */\n      tag_54\n      jump\t// in\n    tag_61:\n        /* \"#utility.yul\":942:1164   */\n      swap3\n      swap2\n      pop\n      pop\n      jump\t// out\n        /* \"#utility.yul\":1251:1341   */\n    tag_53:\n        /* \"#utility.yul\":1285:1292   */\n      0x00\n        /* \"#utility.yul\":1328:1333   */\n      dup2\n        /* \"#utility.yul\":1321:1334   */\n      iszero\n        /* \"#utility.yul\":1314:1335   */\n      iszero\n        /* \"#utility.yul\":1303:1335   */\n      swap1\n      pop\n        /* \"#utility.yul\":1251:1341   */\n      swap2\n      swap1\n      pop\n      jump\t// out\n        /* \"#utility.yul\":1347:1424   */\n    tag_57:\n        /* \"#utility.yul\":1384:1391   */\n      0x00\n        /* \"#utility.yul\":1413:1418   */\n      dup2\n        /* \"#utility.yul\":1402:1418   */\n      swap1\n      pop\n        /* \"#utility.yul\":1347:1424   */\n      swap2\n      swap1\n      pop\n      jump\t// out\n        /* \"#utility.yul\":1430:1663   */\n    tag_32:\n        /* \"#utility.yul\":1469:1472   */\n      0x00\n        /* \"#utility.yul\":1492:1516   */\n      tag_67\n        /* \"#utility.yul\":1510:1515   */\n      dup3\n        /* \"#utility.yul\":1492:1516   */\n      tag_57\n      jump\t// in\n    tag_67:\n        /* \"#utility.yul\":1483:1516   */\n      swap2\n      pop\n        /* \"#utility.yul\":1538:1604   */\n      0xffffffffffffffffffffffffffffffffffffffffffffffffffffffffffffffff\n        /* \"#utility.yul\":1531:1536   */\n      dup3\n        /* \"#utility.yul\":1528:1605   */\n      eq\n        /* \"#utility.yul\":1525:1628   */\n      iszero\n      tag_68\n      jumpi\n        /* \"#utility.yul\":1608:1626   */\n      tag_69\n      tag_70\n      jump\t// in\n    tag_69:\n        /* \"#utility.yul\":1525:1628   */\n    tag_68:\n        /* \"#utility.yul\":1655:1656   */\n      0x01\n        /* \"#utility.yul\":1648:1653   */\n      dup3\n        /* \"#utility.yul\":1644:1657   */\n      add\n        /* \"#utility.yul\":1637:1657   */\n      swap1\n      pop\n        /* \"#utility.yul\":1430:1663   */\n      swap2\n      swap1\n      pop\n      jump\t// out\n        /* \"#utility.yul\":1669:1845   */\n    tag_29:\n        /* \"#utility.yul\":1701:1702   */\n      0x00\n        /* \"#utility.yul\":1718:1738   */\n      tag_72\n        /* \"#utility.yul\":1736:1737   */\n      dup3\n        /* \"#utility.yul\":1718:1738   */\n      tag_57\n      jump\t// in\n    tag_72:\n        /* \"#utility.yul\":1713:1738   */\n      swap2\n      pop\n        /* \"#utility.yul\":1752:1772   */\n      tag_73\n        /* \"#utility.yul\":1770:1771   */\n      dup4\n        /* \"#utility.yul\":1752:1772   */\n      tag_57\n      jump\t// in\n    tag_73:\n        /* \"#utility.yul\":1747:1772   */\n      swap3\n      pop\n        /* \"#utility.yul\":1791:1792   */\n      dup3\n        /* \"#utility.yul\":1781:1816   */\n      tag_74\n      jumpi\n        /* \"#utility.yul\":1796:1814   */\n      tag_75\n      tag_76\n      jump\t// in\n    tag_75:\n        /* \"#utility.yul\":1781:1816   */\n    tag_74:\n        /* \"#utility.yul\":1837:1838   */\n      dup3\n        /* \"#utility.yul\":1834:1835   */\n      dup3\n        /* \"#utility.yul\":1830:1839   */\n      mod\n        /* \"#utility.yul\":1825:1839   */\n      swap1\n      pop\n        /* \"#utility.yul\":1669:1845   */\n      swap3\n      swap2\n      pop\n      pop\n      jump\t// out\n        /* \"#utility.yul\":1851:2031   */\n    tag_70:\n        /* \"#utility.yul\":1899:1976   */\n      0x4e487b7100000000000000000000000000000000000000000000000000000000\n        /* \"#utility.yul\":1896:1897   */\n      0x00\n        /* \"#utility.yul\":1889:1977   */\n      mstore\n        /* \"#utility.yul\":1996:2000   */\n      0x11\n        /* \"#utility.yul\":1993:1994   */\n      0x04\n        /* \"#utility.yul\":1986:2001   */\n      mstore\n        /* \"#utility.yul\":2020:2024   */\n      0x24\n        /* \"#utility.yul\":2017:2018   */\n      0x00\n        /* \"#utility.yul\":2010:2025   */\n      revert\n        /* \"#utility.yul\":2037:2217   */\n    tag_76:\n        /* \"#utility.yul\":2085:2162   */\n      0x4e487b7100000000000000000000000000000000000000000000000000000000\n        /* \"#utility.yul\":2082:2083   */\n      0x00\n        /* \"#utility.yul\":2075:2163   */\n      mstore\n        /* \"#utility.yul\":2182:2186   */\n      0x12\n        /* \"#utility.yul\":2179:2180   */\n      0x04\n        /* \"#utility.yul\":2172:2187   */\n      mstore\n        /* \"#utility.yul\":2206:2210   */\n      0x24\n        /* \"#utility.yul\":2203:2204   */\n      0x00\n        /* \"#utility.yul\":2196:2211   */\n      revert\n        /* \"#utility.yul\":2223:2403   */\n    tag_26:\n        /* \"#utility.yul\":2271:2348   */\n      0x4e487b7100000000000000000000000000000000000000000000000000000000\n        /* \"#utility.yul\":2268:2269   */\n      0x00\n        /* \"#utility.yul\":2261:2349   */\n      mstore\n        /* \"#utility.yul\":2368:2372   */\n      0x32\n        /* \"#utility.yul\":2365:2366   */\n      0x04\n        /* \"#utility.yul\":2358:2373   */\n      mstore\n        /* \"#utility.yul\":2392:2396   */\n      0x24\n        /* \"#utility.yul\":2389:2390   */\n      0x00\n        /* \"#utility.yul\":2382:2397   */\n      revert\n        /* \"#utility.yul\":2532:2649   */\n    tag_48:\n        /* \"#utility.yul\":2641:2642   */\n      0x00\n        /* \"#utility.yul\":2638:2639   */\n      dup1\n        /* \"#utility.yul\":2631:2643   */\n      revert\n        /* \"#utility.yul\":2655:2777   */\n    tag_44:\n        /* \"#utility.yul\":2728:2752   */\n      tag_84\n        /* \"#utility.yul\":2746:2751   */\n      dup2\n        /* \"#utility.yul\":2728:2752   */\n      tag_57\n      jump\t// in\n    tag_84:\n        /* \"#utility.yul\":2721:2726   */\n      dup2\n        /* \"#utility.yul\":2718:2753   */\n      eq\n        /* \"#utility.yul\":2708:2771   */\n      tag_85\n      jumpi\n        /* \"#utility.yul\":2767:2768   */\n      0x00\n        /* \"#utility.yul\":2764:2765   */\n      dup1\n        /* \"#utility.yul\":2757:2769   */\n      revert\n        /* \"#utility.yul\":2708:2771   */\n    tag_85:\n        /* \"#utility.yul\":2655:2777   */\n      pop\n      jump\t// out\n\n    auxdata: 0xa26469706673582212206e62bbdf089b86eb927617e6b55014930a09949ce2575b59a1f3439da7f09a6364736f6c63430008070033\n}\n",
				"bytecode": {
					"linkReferences": {},
					"object": "6080604052604051806101400160405280600160ff168152602001600260ff168152602001600360ff168152602001600460ff168152602001600560ff168152602001600660ff168152602001600760ff168152602001600860ff168152602001600960ff168152602001600a60ff16815250600090600a610082929190610095565b5034801561008f57600080fd5b50610104565b8280548282559060005260206000209081019282156100d6579160200282015b828111156100d5578251829060ff169055916020019190600101906100b5565b5b5090506100e391906100e7565b5090565b5b808211156101005760008160009055506001016100e8565b5090565b61038a806101136000396000f3fe608060405234801561001057600080fd5b50600436106100415760003560e01c80632835b8481461004657806361cebfea14610064578063d39fa23314610094575b600080fd5b61004e6100c4565b60405161005b9190610200565b60405180910390f35b61007e6004803603810190610079919061019a565b610138565b60405161008b91906101e5565b60405180910390f35b6100ae60048036038101906100a9919061019a565b610161565b6040516100bb9190610200565b60405180910390f35b6000806000905060005b6000805490508110156101305760006002600083815481106100f3576100f2610309565b5b9060005260206000200154610108919061027a565b141561011d57818061011990610231565b9250505b808061012890610231565b9150506100ce565b508091505090565b600080600283610148919061027a565b1415610157576001905061015c565b600090505b919050565b6000818154811061017157600080fd5b906000526020600020016000915090505481565b6000813590506101948161033d565b92915050565b6000602082840312156101b0576101af610338565b5b60006101be84828501610185565b91505092915050565b6101d08161021b565b82525050565b6101df81610227565b82525050565b60006020820190506101fa60008301846101c7565b92915050565b600060208201905061021560008301846101d6565b92915050565b60008115159050919050565b6000819050919050565b600061023c82610227565b91507fffffffffffffffffffffffffffffffffffffffffffffffffffffffffffffffff82141561026f5761026e6102ab565b5b600182019050919050565b600061028582610227565b915061029083610227565b9250826102a05761029f6102da565b5b828206905092915050565b7f4e487b7100000000000000000000000000000000000000000000000000000000600052601160045260246000fd5b7f4e487b7100000000000000000000000000000000000000000000000000000000600052601260045260246000fd5b7f4e487b7100000000000000000000000000000000000000000000000000000000600052603260045260246000fd5b600080fd5b61034681610227565b811461035157600080fd5b5056fea26469706673582212206e62bbdf089b86eb927617e6b55014930a09949ce2575b59a1f3439da7f09a6364736f6c63430008070033",
					"opcodes": "PUSH1 0x80 PUSH1 0x40 MSTORE PUSH1 0x40 MLOAD DUP1 PUSH2 0x140 ADD PUSH1 0x40 MSTORE DUP1 PUSH1 0x1 PUSH1 0xFF AND DUP2 MSTORE PUSH1 0x20 ADD PUSH1 0x2 PUSH1 0xFF AND DUP2 MSTORE PUSH1 0x20 ADD PUSH1 0x3 PUSH1 0xFF AND DUP2 MSTORE PUSH1 0x20 ADD PUSH1 0x4 PUSH1 0xFF AND DUP2 MSTORE PUSH1 0x20 ADD PUSH1 0x5 PUSH1 0xFF AND DUP2 MSTORE PUSH1 0x20 ADD PUSH1 0x6 PUSH1 0xFF AND DUP2 MSTORE PUSH1 0x20 ADD PUSH1 0x7 PUSH1 0xFF AND DUP2 MSTORE PUSH1 0x20 ADD PUSH1 0x8 PUSH1 0xFF AND DUP2 MSTORE PUSH1 0x20 ADD PUSH1 0x9 PUSH1 0xFF AND DUP2 MSTORE PUSH1 0x20 ADD PUSH1 0xA PUSH1 0xFF AND DUP2 MSTORE POP PUSH1 0x0 SWAP1 PUSH1 0xA PUSH2 0x82 SWAP3 SWAP2 SWAP1 PUSH2 0x95 JUMP JUMPDEST POP CALLVALUE DUP1 ISZERO PUSH2 0x8F JUMPI PUSH1 0x0 DUP1 REVERT JUMPDEST POP PUSH2 0x104 JUMP JUMPDEST DUP3 DUP1 SLOAD DUP3 DUP3 SSTORE SWAP1 PUSH1 0x0 MSTORE PUSH1 0x20 PUSH1 0x0 KECCAK256 SWAP1 DUP2 ADD SWAP3 DUP3 ISZERO PUSH2 0xD6 JUMPI SWAP2 PUSH1 0x20 MUL DUP3 ADD JUMPDEST DUP3 DUP2 GT ISZERO PUSH2 0xD5 JUMPI DUP3 MLOAD DUP3 SWAP1 PUSH1 0xFF AND SWAP1 SSTORE SWAP2 PUSH1 0x20 ADD SWAP2 SWAP1 PUSH1 0x1 ADD SWAP1 PUSH2 0xB5 JUMP JUMPDEST JUMPDEST POP SWAP1 POP PUSH2 0xE3 SWAP2 SWAP1 PUSH2 0xE7 JUMP JUMPDEST POP SWAP1 JUMP JUMPDEST JUMPDEST DUP1 DUP3 GT ISZERO PUSH2 0x100 JUMPI PUSH1 0x0 DUP2 PUSH1 0x0 SWAP1 SSTORE POP PUSH1 0x1 ADD PUSH2 0xE8 JUMP JUMPDEST POP SWAP1 JUMP JUMPDEST PUSH2 0x38A DUP1 PUSH2 0x113 PUSH1 0x0 CODECOPY PUSH1 0x0 RETURN INVALID PUSH1 0x80 PUSH1 0x40 MSTORE CALLVALUE DUP1 ISZERO PUSH2 0x10 JUMPI PUSH1 0x0 DUP1 REVERT JUMPDEST POP PUSH1 0x4 CALLDATASIZE LT PUSH2 0x41 JUMPI PUSH1 0x0 CALLDATALOAD PUSH1 0xE0 SHR DUP1 PUSH4 0x2835B848 EQ PUSH2 0x46 JUMPI DUP1 PUSH4 0x61CEBFEA EQ PUSH2 0x64 JUMPI DUP1 PUSH4 0xD39FA233 EQ PUSH2 0x94 JUMPI JUMPDEST PUSH1 0x0 DUP1 REVERT JUMPDEST PUSH2 0x4E PUSH2 0xC4 JUMP JUMPDEST PUSH1 0x40 MLOAD PUSH2 0x5B SWAP2 SWAP1 PUSH2 0x200 JUMP JUMPDEST PUSH1 0x40 MLOAD DUP1 SWAP2 SUB SWAP1 RETURN JUMPDEST PUSH2 0x7E PUSH1 0x4 DUP1 CALLDATASIZE SUB DUP2 ADD SWAP1 PUSH2 0x79 SWAP2 SWAP1 PUSH2 0x19A JUMP JUMPDEST PUSH2 0x138 JUMP JUMPDEST PUSH1 0x40 MLOAD PUSH2 0x8B SWAP2 SWAP1 PUSH2 0x1E5 JUMP JUMPDEST PUSH1 0x40 MLOAD DUP1 SWAP2 SUB SWAP1 RETURN JUMPDEST PUSH2 0xAE PUSH1 0x4 DUP1 CALLDATASIZE SUB DUP2 ADD SWAP1 PUSH2 0xA9 SWAP2 SWAP1 PUSH2 0x19A JUMP JUMPDEST PUSH2 0x161 JUMP JUMPDEST PUSH1 0x40 MLOAD PUSH2 0xBB SWAP2 SWAP1 PUSH2 0x200 JUMP JUMPDEST PUSH1 0x40 MLOAD DUP1 SWAP2 SUB SWAP1 RETURN JUMPDEST PUSH1 0x0 DUP1 PUSH1 0x0 SWAP1 POP PUSH1 0x0 JUMPDEST PUSH1 0x0 DUP1 SLOAD SWAP1 POP DUP2 LT ISZERO PUSH2 0x130 JUMPI PUSH1 0x0 PUSH1 0x2 PUSH1 0x0 DUP4 DUP2 SLOAD DUP2 LT PUSH2 0xF3 JUMPI PUSH2 0xF2 PUSH2 0x309 JUMP JUMPDEST JUMPDEST SWAP1 PUSH1 0x0 MSTORE PUSH1 0x20 PUSH1 0x0 KECCAK256 ADD SLOAD PUSH2 0x108 SWAP2 SWAP1 PUSH2 0x27A JUMP JUMPDEST EQ ISZERO PUSH2 0x11D JUMPI DUP2 DUP1 PUSH2 0x119 SWAP1 PUSH2 0x231 JUMP JUMPDEST SWAP3 POP POP JUMPDEST DUP1 DUP1 PUSH2 0x128 SWAP1 PUSH2 0x231 JUMP JUMPDEST SWAP2 POP POP PUSH2 0xCE JUMP JUMPDEST POP DUP1 SWAP2 POP POP SWAP1 JUMP JUMPDEST PUSH1 0x0 DUP1 PUSH1 0x2 DUP4 PUSH2 0x148 SWAP2 SWAP1 PUSH2 0x27A JUMP JUMPDEST EQ ISZERO PUSH2 0x157 JUMPI PUSH1 0x1 SWAP1 POP PUSH2 0x15C JUMP JUMPDEST PUSH1 0x0 SWAP1 POP JUMPDEST SWAP2 SWAP1 POP JUMP JUMPDEST PUSH1 0x0 DUP2 DUP2 SLOAD DUP2 LT PUSH2 0x171 JUMPI PUSH1 0x0 DUP1 REVERT JUMPDEST SWAP1 PUSH1 0x0 MSTORE PUSH1 0x20 PUSH1 0x0 KECCAK256 ADD PUSH1 0x0 SWAP2 POP SWAP1 POP SLOAD DUP2 JUMP JUMPDEST PUSH1 0x0 DUP2 CALLDATALOAD SWAP1 POP PUSH2 0x194 DUP2 PUSH2 0x33D JUMP JUMPDEST SWAP3 SWAP2 POP POP JUMP JUMPDEST PUSH1 0x0 PUSH1 0x20 DUP3 DUP5 SUB SLT ISZERO PUSH2 0x1B0 JUMPI PUSH2 0x1AF PUSH2 0x338 JUMP JUMPDEST JUMPDEST PUSH1 0x0 PUSH2 0x1BE DUP5 DUP3 DUP6 ADD PUSH2 0x185 JUMP JUMPDEST SWAP2 POP POP SWAP3 SWAP2 POP POP JUMP JUMPDEST PUSH2 0x1D0 DUP2 PUSH2 0x21B JUMP JUMPDEST DUP3 MSTORE POP POP JUMP JUMPDEST PUSH2 0x1DF DUP2 PUSH2 0x227 JUMP JUMPDEST DUP3 MSTORE POP POP JUMP JUMPDEST PUSH1 0x0 PUSH1 0x20 DUP3 ADD SWAP1 POP PUSH2 0x1FA PUSH1 0x0 DUP4 ADD DUP5 PUSH2 0x1C7 JUMP JUMPDEST SWAP3 SWAP2 POP POP JUMP JUMPDEST PUSH1 0x0 PUSH1 0x20 DUP3 ADD SWAP1 POP PUSH2 0x215 PUSH1 0x0 DUP4 ADD DUP5 PUSH2 0x1D6 JUMP JUMPDEST SWAP3 SWAP2 POP POP JUMP JUMPDEST PUSH1 0x0 DUP2 ISZERO ISZERO SWAP1 POP SWAP2 SWAP1 POP JUMP JUMPDEST PUSH1 0x0 DUP2 SWAP1 POP SWAP2 SWAP1 POP JUMP JUMPDEST PUSH1 0x0 PUSH2 0x23C DUP3 PUSH2 0x227 JUMP JUMPDEST SWAP2 POP PUSH32 0xFFFFFFFFFFFFFFFFFFFFFFFFFFFFFFFFFFFFFFFFFFFFFFFFFFFFFFFFFFFFFFFF DUP3 EQ ISZERO PUSH2 0x26F JUMPI PUSH2 0x26E PUSH2 0x2AB JUMP JUMPDEST JUMPDEST PUSH1 0x1 DUP3 ADD SWAP1 POP SWAP2 SWAP1 POP JUMP JUMPDEST PUSH1 0x0 PUSH2 0x285 DUP3 PUSH2 0x227 JUMP JUMPDEST SWAP2 POP PUSH2 0x290 DUP4 PUSH2 0x227 JUMP JUMPDEST SWAP3 POP DUP3 PUSH2 0x2A0 JUMPI PUSH2 0x29F PUSH2 0x2DA JUMP JUMPDEST JUMPDEST DUP3 DUP3 MOD SWAP1 POP SWAP3 SWAP2 POP POP JUMP JUMPDEST PUSH32 0x4E487B7100000000000000000000000000000000000000000000000000000000 PUSH1 0x0 MSTORE PUSH1 0x11 PUSH1 0x4 MSTORE PUSH1 0x24 PUSH1 0x0 REVERT JUMPDEST PUSH32 0x4E487B7100000000000000000000000000000000000000000000000000000000 PUSH1 0x0 MSTORE PUSH1 0x12 PUSH1 0x4 MSTORE PUSH1 0x24 PUSH1 0x0 REVERT JUMPDEST PUSH32 0x4E487B7100000000000000000000000000000000000000000000000000000000 PUSH1 0x0 MSTORE PUSH1 0x32 PUSH1 0x4 MSTORE PUSH1 0x24 PUSH1 0x0 REVERT JUMPDEST PUSH1 0x0 DUP1 REVERT JUMPDEST PUSH2 0x346 DUP2 PUSH2 0x227 JUMP JUMPDEST DUP2 EQ PUSH2 0x351 JUMPI PUSH1 0x0 DUP1 REVERT JUMPDEST POP JUMP INVALID LOG2 PUSH5 0x6970667358 0x22 SLT KECCAK256 PUSH15 0x62BBDF089B86EB927617E6B5501493 EXP MULMOD SWAP5 SWAP13 0xE2 JUMPI JUMPDEST MSIZE LOG1 RETURN NUMBER SWAP14 0xA7 CREATE SWAP11 PUSH4 0x64736F6C PUSH4 0x43000807 STOP CALLER "
				},
				"gasEstimates": {
					"creation": {
						"codeDepositCost": "181200",
						"executionCost": "infinite",
						"totalCost": "infinite"
					},
					"external": {
						"countEven()": "infinite",
						"isEvenOrNot(uint256)": "infinite",
						"numbers(uint256)": "infinite"
					}
				},
				"methodIdentifiers": {
					"countEven()": "2835b848",
					"isEvenOrNot(uint256)": "61cebfea",
					"numbers(uint256)": "d39fa233"
				}
			},
			"storageLayout": {
				"storage": [
					{
						"astId": 15,
						"contract": "contracts/Loop&Condition.sol:Loop_Condition",
						"label": "numbers",
						"offset": 0,
						"slot": "0",
						"type": "t_array(t_uint256)dyn_storage"
					}
				],
				"types": {
					"t_array(t_uint256)dyn_storage": {
						"base": "t_uint256",
						"encoding": "dynamic_array",
						"label": "uint256[]",
						"numberOfBytes": "32"
					},
					"t_uint256": {
						"encoding": "inplace",
						"label": "uint256",
						"numberOfBytes": "32"
					}
				}
			},
			"userdoc": {
				"kind": "user",
				"methods": {},
				"version": 1
			}
		}
	}
}