{
	"contracts/HotelRoom.sol": {
		"HotelRoom": {
			"abi": [
				{
					"inputs": [],
					"stateMutability": "nonpayable",
					"type": "constructor"
				},
				{
					"anonymous": false,
					"inputs": [
						{
							"indexed": false,
							"internalType": "address",
							"name": "_occupant",
							"type": "address"
						},
						{
							"indexed": false,
							"internalType": "uint256",
							"name": "_value",
							"type": "uint256"
						}
					],
					"name": "Occupy",
					"type": "event"
				},
				{
					"inputs": [],
					"name": "book",
					"outputs": [],
					"stateMutability": "payable",
					"type": "function"
				},
				{
					"inputs": [],
					"name": "owner",
					"outputs": [
						{
							"internalType": "address payable",
							"name": "",
							"type": "address"
						}
					],
					"stateMutability": "view",
					"type": "function"
				}
			],
			"devdoc": {
				"kind": "dev",
				"methods": {},
				"version": 1
			},
			"evm": {
				"assembly": "    /* \"contracts/HotelRoom.sol\":64:1035  contract HotelRoom {\r... */\n  mstore(0x40, 0x80)\n    /* \"contracts/HotelRoom.sol\":307:411  constructor() {\r... */\n  callvalue\n  dup1\n  iszero\n  tag_1\n  jumpi\n  0x00\n  dup1\n  revert\ntag_1:\n  pop\n    /* \"contracts/HotelRoom.sol\":348:358  msg.sender */\n  caller\n    /* \"contracts/HotelRoom.sol\":332:337  owner */\n  0x00\n  dup1\n    /* \"contracts/HotelRoom.sol\":332:359  owner = payable(msg.sender) */\n  0x0100\n  exp\n  dup2\n  sload\n  dup2\n  0xffffffffffffffffffffffffffffffffffffffff\n  mul\n  not\n  and\n  swap1\n  dup4\n  0xffffffffffffffffffffffffffffffffffffffff\n  and\n  mul\n  or\n  swap1\n  sstore\n  pop\n    /* \"contracts/HotelRoom.sol\":388:403  Statuses.Vacant */\n  0x00\n    /* \"contracts/HotelRoom.sol\":370:385  CurrentStatuses */\n  dup1\n  0x14\n    /* \"contracts/HotelRoom.sol\":370:403  CurrentStatuses = Statuses.Vacant */\n  0x0100\n  exp\n  dup2\n  sload\n  dup2\n  0xff\n  mul\n  not\n  and\n  swap1\n  dup4\n  0x01\n  dup2\n  gt\n  iszero\n  tag_4\n  jumpi\n  tag_5\n  tag_6\n  jump\t// in\ntag_5:\ntag_4:\n  mul\n  or\n  swap1\n  sstore\n  pop\n    /* \"contracts/HotelRoom.sol\":64:1035  contract HotelRoom {\r... */\n  jump(tag_7)\n    /* \"#utility.yul\":7:187   */\ntag_6:\n    /* \"#utility.yul\":55:132   */\n  0x4e487b7100000000000000000000000000000000000000000000000000000000\n    /* \"#utility.yul\":52:53   */\n  0x00\n    /* \"#utility.yul\":45:133   */\n  mstore\n    /* \"#utility.yul\":152:156   */\n  0x21\n    /* \"#utility.yul\":149:150   */\n  0x04\n    /* \"#utility.yul\":142:157   */\n  mstore\n    /* \"#utility.yul\":176:180   */\n  0x24\n    /* \"#utility.yul\":173:174   */\n  0x00\n    /* \"#utility.yul\":166:181   */\n  revert\n    /* \"contracts/HotelRoom.sol\":64:1035  contract HotelRoom {\r... */\ntag_7:\n  dataSize(sub_0)\n  dup1\n  dataOffset(sub_0)\n  0x00\n  codecopy\n  0x00\n  return\nstop\n\nsub_0: assembly {\n        /* \"contracts/HotelRoom.sol\":64:1035  contract HotelRoom {\r... */\n      mstore(0x40, 0x80)\n      jumpi(tag_1, lt(calldatasize, 0x04))\n      shr(0xe0, calldataload(0x00))\n      dup1\n      0x05a8da72\n      eq\n      tag_2\n      jumpi\n      dup1\n      0x8da5cb5b\n      eq\n      tag_3\n      jumpi\n    tag_1:\n      0x00\n      dup1\n      revert\n        /* \"contracts/HotelRoom.sol\":763:1028  function book() public payable  onlyWhileVacant costs(2 ether) {\r... */\n    tag_2:\n      tag_4\n      tag_5\n      jump\t// in\n    tag_4:\n      stop\n        /* \"contracts/HotelRoom.sol\":92:120  address payable public owner */\n    tag_3:\n      callvalue\n      dup1\n      iszero\n      tag_6\n      jumpi\n      0x00\n      dup1\n      revert\n    tag_6:\n      pop\n      tag_7\n      tag_8\n      jump\t// in\n    tag_7:\n      mload(0x40)\n      tag_9\n      swap2\n      swap1\n      tag_10\n      jump\t// in\n    tag_9:\n      mload(0x40)\n      dup1\n      swap2\n      sub\n      swap1\n      return\n        /* \"contracts/HotelRoom.sol\":763:1028  function book() public payable  onlyWhileVacant costs(2 ether) {\r... */\n    tag_5:\n        /* \"contracts/HotelRoom.sol\":508:523  Statuses.Vacant */\n      0x00\n        /* \"contracts/HotelRoom.sol\":489:523  CurrentStatuses == Statuses.Vacant */\n      0x01\n      dup2\n      gt\n      iszero\n      tag_12\n      jumpi\n      tag_13\n      tag_14\n      jump\t// in\n    tag_13:\n    tag_12:\n        /* \"contracts/HotelRoom.sol\":489:504  CurrentStatuses */\n      0x00\n      0x14\n      swap1\n      sload\n      swap1\n      0x0100\n      exp\n      swap1\n      div\n      0xff\n      and\n        /* \"contracts/HotelRoom.sol\":489:523  CurrentStatuses == Statuses.Vacant */\n      0x01\n      dup2\n      gt\n      iszero\n      tag_15\n      jumpi\n      tag_16\n      tag_14\n      jump\t// in\n    tag_16:\n    tag_15:\n      eq\n        /* \"contracts/HotelRoom.sol\":481:547  require(CurrentStatuses == Statuses.Vacant, \"Currently occupied.\") */\n      tag_17\n      jumpi\n      mload(0x40)\n      0x08c379a000000000000000000000000000000000000000000000000000000000\n      dup2\n      mstore\n      0x04\n      add\n      tag_18\n      swap1\n      tag_19\n      jump\t// in\n    tag_18:\n      mload(0x40)\n      dup1\n      swap2\n      sub\n      swap1\n      revert\n    tag_17:\n        /* \"contracts/HotelRoom.sol\":817:824  2 ether */\n      0x1bc16d674ec80000\n        /* \"contracts/HotelRoom.sol\":659:666  _amount */\n      dup1\n        /* \"contracts/HotelRoom.sol\":646:655  msg.value */\n      callvalue\n        /* \"contracts/HotelRoom.sol\":646:666  msg.value >= _amount */\n      lt\n      iszero\n        /* \"contracts/HotelRoom.sol\":638:697  require(msg.value >= _amount, \"Not enough ether provided.\") */\n      tag_21\n      jumpi\n      mload(0x40)\n      0x08c379a000000000000000000000000000000000000000000000000000000000\n      dup2\n      mstore\n      0x04\n      add\n      tag_22\n      swap1\n      tag_23\n      jump\t// in\n    tag_22:\n      mload(0x40)\n      dup1\n      swap2\n      sub\n      swap1\n      revert\n    tag_21:\n        /* \"contracts/HotelRoom.sol\":855:872  Statuses.Occupied */\n      0x01\n        /* \"contracts/HotelRoom.sol\":837:852  CurrentStatuses */\n      0x00\n      0x14\n        /* \"contracts/HotelRoom.sol\":837:872  CurrentStatuses = Statuses.Occupied */\n      0x0100\n      exp\n      dup2\n      sload\n      dup2\n      0xff\n      mul\n      not\n      and\n      swap1\n      dup4\n      0x01\n      dup2\n      gt\n      iszero\n      tag_25\n      jumpi\n      tag_26\n      tag_14\n      jump\t// in\n    tag_26:\n    tag_25:\n      mul\n      or\n      swap1\n      sstore\n      pop\n        /* \"contracts/HotelRoom.sol\":884:893  bool sent */\n      0x00\n        /* \"contracts/HotelRoom.sol\":895:912  bytes memory data */\n      dup1\n        /* \"contracts/HotelRoom.sol\":916:921  owner */\n      0x00\n      dup1\n      sload\n      swap1\n      0x0100\n      exp\n      swap1\n      div\n      0xffffffffffffffffffffffffffffffffffffffff\n      and\n        /* \"contracts/HotelRoom.sol\":916:926  owner.call */\n      0xffffffffffffffffffffffffffffffffffffffff\n      and\n        /* \"contracts/HotelRoom.sol\":936:945  msg.value */\n      callvalue\n        /* \"contracts/HotelRoom.sol\":916:951  owner.call { value: msg.value }(\"\") */\n      mload(0x40)\n      tag_27\n      swap1\n      tag_28\n      jump\t// in\n    tag_27:\n      0x00\n      mload(0x40)\n      dup1\n      dup4\n      sub\n      dup2\n      dup6\n      dup8\n      gas\n      call\n      swap3\n      pop\n      pop\n      pop\n      returndatasize\n      dup1\n      0x00\n      dup2\n      eq\n      tag_31\n      jumpi\n      mload(0x40)\n      swap2\n      pop\n      and(add(returndatasize, 0x3f), not(0x1f))\n      dup3\n      add\n      0x40\n      mstore\n      returndatasize\n      dup3\n      mstore\n      returndatasize\n      0x00\n      0x20\n      dup5\n      add\n      returndatacopy\n      jump(tag_30)\n    tag_31:\n      0x60\n      swap2\n      pop\n    tag_30:\n      pop\n        /* \"contracts/HotelRoom.sol\":883:951  (bool sent, bytes memory data) = owner.call { value: msg.value }(\"\") */\n      swap2\n      pop\n      swap2\n      pop\n        /* \"contracts/HotelRoom.sol\":970:974  true */\n      0x01\n        /* \"contracts/HotelRoom.sol\":962:975  require(true) */\n      tag_32\n      jumpi\n      0x00\n      dup1\n      revert\n    tag_32:\n        /* \"contracts/HotelRoom.sol\":991:1020  Occupy(msg.sender, msg.value) */\n      0xba951166d42eb077151bdecb7cf6027562f04f0143b0c141b1bb0a33eef5d693\n        /* \"contracts/HotelRoom.sol\":998:1008  msg.sender */\n      caller\n        /* \"contracts/HotelRoom.sol\":1010:1019  msg.value */\n      callvalue\n        /* \"contracts/HotelRoom.sol\":991:1020  Occupy(msg.sender, msg.value) */\n      mload(0x40)\n      tag_33\n      swap3\n      swap2\n      swap1\n      tag_34\n      jump\t// in\n    tag_33:\n      mload(0x40)\n      dup1\n      swap2\n      sub\n      swap1\n      log1\n        /* \"contracts/HotelRoom.sol\":826:1028  {\r... */\n      pop\n      pop\n        /* \"contracts/HotelRoom.sol\":558:559  _ */\n      pop\n        /* \"contracts/HotelRoom.sol\":763:1028  function book() public payable  onlyWhileVacant costs(2 ether) {\r... */\n      jump\t// out\n        /* \"contracts/HotelRoom.sol\":92:120  address payable public owner */\n    tag_8:\n      0x00\n      dup1\n      sload\n      swap1\n      0x0100\n      exp\n      swap1\n      div\n      0xffffffffffffffffffffffffffffffffffffffff\n      and\n      dup2\n      jump\t// out\n        /* \"#utility.yul\":7:149   */\n    tag_36:\n        /* \"#utility.yul\":110:142   */\n      tag_38\n        /* \"#utility.yul\":136:141   */\n      dup2\n        /* \"#utility.yul\":110:142   */\n      tag_39\n      jump\t// in\n    tag_38:\n        /* \"#utility.yul\":105:108   */\n      dup3\n        /* \"#utility.yul\":98:143   */\n      mstore\n        /* \"#utility.yul\":7:149   */\n      pop\n      pop\n      jump\t// out\n        /* \"#utility.yul\":155:273   */\n    tag_40:\n        /* \"#utility.yul\":242:266   */\n      tag_42\n        /* \"#utility.yul\":260:265   */\n      dup2\n        /* \"#utility.yul\":242:266   */\n      tag_43\n      jump\t// in\n    tag_42:\n        /* \"#utility.yul\":237:240   */\n      dup3\n        /* \"#utility.yul\":230:267   */\n      mstore\n        /* \"#utility.yul\":155:273   */\n      pop\n      pop\n      jump\t// out\n        /* \"#utility.yul\":279:645   */\n    tag_44:\n        /* \"#utility.yul\":421:424   */\n      0x00\n        /* \"#utility.yul\":442:509   */\n      tag_46\n        /* \"#utility.yul\":506:508   */\n      0x1a\n        /* \"#utility.yul\":501:504   */\n      dup4\n        /* \"#utility.yul\":442:509   */\n      tag_47\n      jump\t// in\n    tag_46:\n        /* \"#utility.yul\":435:509   */\n      swap2\n      pop\n        /* \"#utility.yul\":518:611   */\n      tag_48\n        /* \"#utility.yul\":607:610   */\n      dup3\n        /* \"#utility.yul\":518:611   */\n      tag_49\n      jump\t// in\n    tag_48:\n        /* \"#utility.yul\":636:638   */\n      0x20\n        /* \"#utility.yul\":631:634   */\n      dup3\n        /* \"#utility.yul\":627:639   */\n      add\n        /* \"#utility.yul\":620:639   */\n      swap1\n      pop\n        /* \"#utility.yul\":279:645   */\n      swap2\n      swap1\n      pop\n      jump\t// out\n        /* \"#utility.yul\":651:1017   */\n    tag_50:\n        /* \"#utility.yul\":793:796   */\n      0x00\n        /* \"#utility.yul\":814:881   */\n      tag_52\n        /* \"#utility.yul\":878:880   */\n      0x13\n        /* \"#utility.yul\":873:876   */\n      dup4\n        /* \"#utility.yul\":814:881   */\n      tag_47\n      jump\t// in\n    tag_52:\n        /* \"#utility.yul\":807:881   */\n      swap2\n      pop\n        /* \"#utility.yul\":890:983   */\n      tag_53\n        /* \"#utility.yul\":979:982   */\n      dup3\n        /* \"#utility.yul\":890:983   */\n      tag_54\n      jump\t// in\n    tag_53:\n        /* \"#utility.yul\":1008:1010   */\n      0x20\n        /* \"#utility.yul\":1003:1006   */\n      dup3\n        /* \"#utility.yul\":999:1011   */\n      add\n        /* \"#utility.yul\":992:1011   */\n      swap1\n      pop\n        /* \"#utility.yul\":651:1017   */\n      swap2\n      swap1\n      pop\n      jump\t// out\n        /* \"#utility.yul\":1023:1421   */\n    tag_55:\n        /* \"#utility.yul\":1182:1185   */\n      0x00\n        /* \"#utility.yul\":1203:1286   */\n      tag_57\n        /* \"#utility.yul\":1284:1285   */\n      0x00\n        /* \"#utility.yul\":1279:1282   */\n      dup4\n        /* \"#utility.yul\":1203:1286   */\n      tag_58\n      jump\t// in\n    tag_57:\n        /* \"#utility.yul\":1196:1286   */\n      swap2\n      pop\n        /* \"#utility.yul\":1295:1388   */\n      tag_59\n        /* \"#utility.yul\":1384:1387   */\n      dup3\n        /* \"#utility.yul\":1295:1388   */\n      tag_60\n      jump\t// in\n    tag_59:\n        /* \"#utility.yul\":1413:1414   */\n      0x00\n        /* \"#utility.yul\":1408:1411   */\n      dup3\n        /* \"#utility.yul\":1404:1415   */\n      add\n        /* \"#utility.yul\":1397:1415   */\n      swap1\n      pop\n        /* \"#utility.yul\":1023:1421   */\n      swap2\n      swap1\n      pop\n      jump\t// out\n        /* \"#utility.yul\":1427:1545   */\n    tag_61:\n        /* \"#utility.yul\":1514:1538   */\n      tag_63\n        /* \"#utility.yul\":1532:1537   */\n      dup2\n        /* \"#utility.yul\":1514:1538   */\n      tag_64\n      jump\t// in\n    tag_63:\n        /* \"#utility.yul\":1509:1512   */\n      dup3\n        /* \"#utility.yul\":1502:1539   */\n      mstore\n        /* \"#utility.yul\":1427:1545   */\n      pop\n      pop\n      jump\t// out\n        /* \"#utility.yul\":1551:1930   */\n    tag_28:\n        /* \"#utility.yul\":1735:1738   */\n      0x00\n        /* \"#utility.yul\":1757:1904   */\n      tag_66\n        /* \"#utility.yul\":1900:1903   */\n      dup3\n        /* \"#utility.yul\":1757:1904   */\n      tag_55\n      jump\t// in\n    tag_66:\n        /* \"#utility.yul\":1750:1904   */\n      swap2\n      pop\n        /* \"#utility.yul\":1921:1924   */\n      dup2\n        /* \"#utility.yul\":1914:1924   */\n      swap1\n      pop\n        /* \"#utility.yul\":1551:1930   */\n      swap2\n      swap1\n      pop\n      jump\t// out\n        /* \"#utility.yul\":1936:2190   */\n    tag_10:\n        /* \"#utility.yul\":2045:2049   */\n      0x00\n        /* \"#utility.yul\":2083:2085   */\n      0x20\n        /* \"#utility.yul\":2072:2081   */\n      dup3\n        /* \"#utility.yul\":2068:2086   */\n      add\n        /* \"#utility.yul\":2060:2086   */\n      swap1\n      pop\n        /* \"#utility.yul\":2096:2183   */\n      tag_68\n        /* \"#utility.yul\":2180:2181   */\n      0x00\n        /* \"#utility.yul\":2169:2178   */\n      dup4\n        /* \"#utility.yul\":2165:2182   */\n      add\n        /* \"#utility.yul\":2156:2162   */\n      dup5\n        /* \"#utility.yul\":2096:2183   */\n      tag_36\n      jump\t// in\n    tag_68:\n        /* \"#utility.yul\":1936:2190   */\n      swap3\n      swap2\n      pop\n      pop\n      jump\t// out\n        /* \"#utility.yul\":2196:2528   */\n    tag_34:\n        /* \"#utility.yul\":2317:2321   */\n      0x00\n        /* \"#utility.yul\":2355:2357   */\n      0x40\n        /* \"#utility.yul\":2344:2353   */\n      dup3\n        /* \"#utility.yul\":2340:2358   */\n      add\n        /* \"#utility.yul\":2332:2358   */\n      swap1\n      pop\n        /* \"#utility.yul\":2368:2439   */\n      tag_70\n        /* \"#utility.yul\":2436:2437   */\n      0x00\n        /* \"#utility.yul\":2425:2434   */\n      dup4\n        /* \"#utility.yul\":2421:2438   */\n      add\n        /* \"#utility.yul\":2412:2418   */\n      dup6\n        /* \"#utility.yul\":2368:2439   */\n      tag_40\n      jump\t// in\n    tag_70:\n        /* \"#utility.yul\":2449:2521   */\n      tag_71\n        /* \"#utility.yul\":2517:2519   */\n      0x20\n        /* \"#utility.yul\":2506:2515   */\n      dup4\n        /* \"#utility.yul\":2502:2520   */\n      add\n        /* \"#utility.yul\":2493:2499   */\n      dup5\n        /* \"#utility.yul\":2449:2521   */\n      tag_61\n      jump\t// in\n    tag_71:\n        /* \"#utility.yul\":2196:2528   */\n      swap4\n      swap3\n      pop\n      pop\n      pop\n      jump\t// out\n        /* \"#utility.yul\":2534:2953   */\n    tag_23:\n        /* \"#utility.yul\":2700:2704   */\n      0x00\n        /* \"#utility.yul\":2738:2740   */\n      0x20\n        /* \"#utility.yul\":2727:2736   */\n      dup3\n        /* \"#utility.yul\":2723:2741   */\n      add\n        /* \"#utility.yul\":2715:2741   */\n      swap1\n      pop\n        /* \"#utility.yul\":2787:2796   */\n      dup2\n        /* \"#utility.yul\":2781:2785   */\n      dup2\n        /* \"#utility.yul\":2777:2797   */\n      sub\n        /* \"#utility.yul\":2773:2774   */\n      0x00\n        /* \"#utility.yul\":2762:2771   */\n      dup4\n        /* \"#utility.yul\":2758:2775   */\n      add\n        /* \"#utility.yul\":2751:2798   */\n      mstore\n        /* \"#utility.yul\":2815:2946   */\n      tag_73\n        /* \"#utility.yul\":2941:2945   */\n      dup2\n        /* \"#utility.yul\":2815:2946   */\n      tag_44\n      jump\t// in\n    tag_73:\n        /* \"#utility.yul\":2807:2946   */\n      swap1\n      pop\n        /* \"#utility.yul\":2534:2953   */\n      swap2\n      swap1\n      pop\n      jump\t// out\n        /* \"#utility.yul\":2959:3378   */\n    tag_19:\n        /* \"#utility.yul\":3125:3129   */\n      0x00\n        /* \"#utility.yul\":3163:3165   */\n      0x20\n        /* \"#utility.yul\":3152:3161   */\n      dup3\n        /* \"#utility.yul\":3148:3166   */\n      add\n        /* \"#utility.yul\":3140:3166   */\n      swap1\n      pop\n        /* \"#utility.yul\":3212:3221   */\n      dup2\n        /* \"#utility.yul\":3206:3210   */\n      dup2\n        /* \"#utility.yul\":3202:3222   */\n      sub\n        /* \"#utility.yul\":3198:3199   */\n      0x00\n        /* \"#utility.yul\":3187:3196   */\n      dup4\n        /* \"#utility.yul\":3183:3200   */\n      add\n        /* \"#utility.yul\":3176:3223   */\n      mstore\n        /* \"#utility.yul\":3240:3371   */\n      tag_75\n        /* \"#utility.yul\":3366:3370   */\n      dup2\n        /* \"#utility.yul\":3240:3371   */\n      tag_50\n      jump\t// in\n    tag_75:\n        /* \"#utility.yul\":3232:3371   */\n      swap1\n      pop\n        /* \"#utility.yul\":2959:3378   */\n      swap2\n      swap1\n      pop\n      jump\t// out\n        /* \"#utility.yul\":3384:3531   */\n    tag_58:\n        /* \"#utility.yul\":3485:3496   */\n      0x00\n        /* \"#utility.yul\":3522:3525   */\n      dup2\n        /* \"#utility.yul\":3507:3525   */\n      swap1\n      pop\n        /* \"#utility.yul\":3384:3531   */\n      swap3\n      swap2\n      pop\n      pop\n      jump\t// out\n        /* \"#utility.yul\":3537:3706   */\n    tag_47:\n        /* \"#utility.yul\":3621:3632   */\n      0x00\n        /* \"#utility.yul\":3655:3661   */\n      dup3\n        /* \"#utility.yul\":3650:3653   */\n      dup3\n        /* \"#utility.yul\":3643:3662   */\n      mstore\n        /* \"#utility.yul\":3695:3699   */\n      0x20\n        /* \"#utility.yul\":3690:3693   */\n      dup3\n        /* \"#utility.yul\":3686:3700   */\n      add\n        /* \"#utility.yul\":3671:3700   */\n      swap1\n      pop\n        /* \"#utility.yul\":3537:3706   */\n      swap3\n      swap2\n      pop\n      pop\n      jump\t// out\n        /* \"#utility.yul\":3712:3808   */\n    tag_43:\n        /* \"#utility.yul\":3749:3756   */\n      0x00\n        /* \"#utility.yul\":3778:3802   */\n      tag_79\n        /* \"#utility.yul\":3796:3801   */\n      dup3\n        /* \"#utility.yul\":3778:3802   */\n      tag_80\n      jump\t// in\n    tag_79:\n        /* \"#utility.yul\":3767:3802   */\n      swap1\n      pop\n        /* \"#utility.yul\":3712:3808   */\n      swap2\n      swap1\n      pop\n      jump\t// out\n        /* \"#utility.yul\":3814:3918   */\n    tag_39:\n        /* \"#utility.yul\":3859:3866   */\n      0x00\n        /* \"#utility.yul\":3888:3912   */\n      tag_82\n        /* \"#utility.yul\":3906:3911   */\n      dup3\n        /* \"#utility.yul\":3888:3912   */\n      tag_80\n      jump\t// in\n    tag_82:\n        /* \"#utility.yul\":3877:3912   */\n      swap1\n      pop\n        /* \"#utility.yul\":3814:3918   */\n      swap2\n      swap1\n      pop\n      jump\t// out\n        /* \"#utility.yul\":3924:4050   */\n    tag_80:\n        /* \"#utility.yul\":3961:3968   */\n      0x00\n        /* \"#utility.yul\":4001:4043   */\n      0xffffffffffffffffffffffffffffffffffffffff\n        /* \"#utility.yul\":3994:3999   */\n      dup3\n        /* \"#utility.yul\":3990:4044   */\n      and\n        /* \"#utility.yul\":3979:4044   */\n      swap1\n      pop\n        /* \"#utility.yul\":3924:4050   */\n      swap2\n      swap1\n      pop\n      jump\t// out\n        /* \"#utility.yul\":4056:4133   */\n    tag_64:\n        /* \"#utility.yul\":4093:4100   */\n      0x00\n        /* \"#utility.yul\":4122:4127   */\n      dup2\n        /* \"#utility.yul\":4111:4127   */\n      swap1\n      pop\n        /* \"#utility.yul\":4056:4133   */\n      swap2\n      swap1\n      pop\n      jump\t// out\n        /* \"#utility.yul\":4139:4319   */\n    tag_14:\n        /* \"#utility.yul\":4187:4264   */\n      0x4e487b7100000000000000000000000000000000000000000000000000000000\n        /* \"#utility.yul\":4184:4185   */\n      0x00\n        /* \"#utility.yul\":4177:4265   */\n      mstore\n        /* \"#utility.yul\":4284:4288   */\n      0x21\n        /* \"#utility.yul\":4281:4282   */\n      0x04\n        /* \"#utility.yul\":4274:4289   */\n      mstore\n        /* \"#utility.yul\":4308:4312   */\n      0x24\n        /* \"#utility.yul\":4305:4306   */\n      0x00\n        /* \"#utility.yul\":4298:4313   */\n      revert\n        /* \"#utility.yul\":4325:4501   */\n    tag_49:\n        /* \"#utility.yul\":4465:4493   */\n      0x4e6f7420656e6f7567682065746865722070726f76696465642e000000000000\n        /* \"#utility.yul\":4461:4462   */\n      0x00\n        /* \"#utility.yul\":4453:4459   */\n      dup3\n        /* \"#utility.yul\":4449:4463   */\n      add\n        /* \"#utility.yul\":4442:4494   */\n      mstore\n        /* \"#utility.yul\":4325:4501   */\n      pop\n      jump\t// out\n        /* \"#utility.yul\":4507:4676   */\n    tag_54:\n        /* \"#utility.yul\":4647:4668   */\n      0x43757272656e746c79206f636375706965642e00000000000000000000000000\n        /* \"#utility.yul\":4643:4644   */\n      0x00\n        /* \"#utility.yul\":4635:4641   */\n      dup3\n        /* \"#utility.yul\":4631:4645   */\n      add\n        /* \"#utility.yul\":4624:4669   */\n      mstore\n        /* \"#utility.yul\":4507:4676   */\n      pop\n      jump\t// out\n        /* \"#utility.yul\":4682:4796   */\n    tag_60:\n      pop\n      jump\t// out\n\n    auxdata: 0xa2646970667358221220906d427282a6939dc41253eff184f3a58352a286b85677fcfc559a786a90b2ac64736f6c63430008070033\n}\n",
				"bytecode": {
					"linkReferences": {},
					"object": "608060405234801561001057600080fd5b50336000806101000a81548173ffffffffffffffffffffffffffffffffffffffff021916908373ffffffffffffffffffffffffffffffffffffffff16021790555060008060146101000a81548160ff0219169083600181111561007657610075610080565b5b02179055506100af565b7f4e487b7100000000000000000000000000000000000000000000000000000000600052602160045260246000fd5b61049e806100be6000396000f3fe6080604052600436106100295760003560e01c806305a8da721461002e5780638da5cb5b14610038575b600080fd5b610036610063565b005b34801561004457600080fd5b5061004d610227565b60405161005a91906102f6565b60405180910390f35b60006001811115610077576100766103e4565b5b600060149054906101000a900460ff166001811115610099576100986103e4565b5b146100d9576040517f08c379a00000000000000000000000000000000000000000000000000000000081526004016100d09061035a565b60405180910390fd5b671bc16d674ec8000080341015610125576040517f08c379a000000000000000000000000000000000000000000000000000000000815260040161011c9061033a565b60405180910390fd5b6001600060146101000a81548160ff0219169083600181111561014b5761014a6103e4565b5b021790555060008060008054906101000a900473ffffffffffffffffffffffffffffffffffffffff1673ffffffffffffffffffffffffffffffffffffffff1634604051610197906102e1565b60006040518083038185875af1925050503d80600081146101d4576040519150601f19603f3d011682016040523d82523d6000602084013e6101d9565b606091505b509150915060016101e957600080fd5b7fba951166d42eb077151bdecb7cf6027562f04f0143b0c141b1bb0a33eef5d693333460405161021a929190610311565b60405180910390a1505050565b60008054906101000a900473ffffffffffffffffffffffffffffffffffffffff1681565b610254816103a8565b82525050565b61026381610396565b82525050565b6000610276601a83610385565b915061028182610413565b602082019050919050565b6000610299601383610385565b91506102a48261043c565b602082019050919050565b60006102bc60008361037a565b91506102c782610465565b600082019050919050565b6102db816103da565b82525050565b60006102ec826102af565b9150819050919050565b600060208201905061030b600083018461024b565b92915050565b6000604082019050610326600083018561025a565b61033360208301846102d2565b9392505050565b6000602082019050818103600083015261035381610269565b9050919050565b600060208201905081810360008301526103738161028c565b9050919050565b600081905092915050565b600082825260208201905092915050565b60006103a1826103ba565b9050919050565b60006103b3826103ba565b9050919050565b600073ffffffffffffffffffffffffffffffffffffffff82169050919050565b6000819050919050565b7f4e487b7100000000000000000000000000000000000000000000000000000000600052602160045260246000fd5b7f4e6f7420656e6f7567682065746865722070726f76696465642e000000000000600082015250565b7f43757272656e746c79206f636375706965642e00000000000000000000000000600082015250565b5056fea2646970667358221220906d427282a6939dc41253eff184f3a58352a286b85677fcfc559a786a90b2ac64736f6c63430008070033",
					"opcodes": "PUSH1 0x80 PUSH1 0x40 MSTORE CALLVALUE DUP1 ISZERO PUSH2 0x10 JUMPI PUSH1 0x0 DUP1 REVERT JUMPDEST POP CALLER PUSH1 0x0 DUP1 PUSH2 0x100 EXP DUP2 SLOAD DUP2 PUSH20 0xFFFFFFFFFFFFFFFFFFFFFFFFFFFFFFFFFFFFFFFF MUL NOT AND SWAP1 DUP4 PUSH20 0xFFFFFFFFFFFFFFFFFFFFFFFFFFFFFFFFFFFFFFFF AND MUL OR SWAP1 SSTORE POP PUSH1 0x0 DUP1 PUSH1 0x14 PUSH2 0x100 EXP DUP2 SLOAD DUP2 PUSH1 0xFF MUL NOT AND SWAP1 DUP4 PUSH1 0x1 DUP2 GT ISZERO PUSH2 0x76 JUMPI PUSH2 0x75 PUSH2 0x80 JUMP JUMPDEST JUMPDEST MUL OR SWAP1 SSTORE POP PUSH2 0xAF JUMP JUMPDEST PUSH32 0x4E487B7100000000000000000000000000000000000000000000000000000000 PUSH1 0x0 MSTORE PUSH1 0x21 PUSH1 0x4 MSTORE PUSH1 0x24 PUSH1 0x0 REVERT JUMPDEST PUSH2 0x49E DUP1 PUSH2 0xBE PUSH1 0x0 CODECOPY PUSH1 0x0 RETURN INVALID PUSH1 0x80 PUSH1 0x40 MSTORE PUSH1 0x4 CALLDATASIZE LT PUSH2 0x29 JUMPI PUSH1 0x0 CALLDATALOAD PUSH1 0xE0 SHR DUP1 PUSH4 0x5A8DA72 EQ PUSH2 0x2E JUMPI DUP1 PUSH4 0x8DA5CB5B EQ PUSH2 0x38 JUMPI JUMPDEST PUSH1 0x0 DUP1 REVERT JUMPDEST PUSH2 0x36 PUSH2 0x63 JUMP JUMPDEST STOP JUMPDEST CALLVALUE DUP1 ISZERO PUSH2 0x44 JUMPI PUSH1 0x0 DUP1 REVERT JUMPDEST POP PUSH2 0x4D PUSH2 0x227 JUMP JUMPDEST PUSH1 0x40 MLOAD PUSH2 0x5A SWAP2 SWAP1 PUSH2 0x2F6 JUMP JUMPDEST PUSH1 0x40 MLOAD DUP1 SWAP2 SUB SWAP1 RETURN JUMPDEST PUSH1 0x0 PUSH1 0x1 DUP2 GT ISZERO PUSH2 0x77 JUMPI PUSH2 0x76 PUSH2 0x3E4 JUMP JUMPDEST JUMPDEST PUSH1 0x0 PUSH1 0x14 SWAP1 SLOAD SWAP1 PUSH2 0x100 EXP SWAP1 DIV PUSH1 0xFF AND PUSH1 0x1 DUP2 GT ISZERO PUSH2 0x99 JUMPI PUSH2 0x98 PUSH2 0x3E4 JUMP JUMPDEST JUMPDEST EQ PUSH2 0xD9 JUMPI PUSH1 0x40 MLOAD PUSH32 0x8C379A000000000000000000000000000000000000000000000000000000000 DUP2 MSTORE PUSH1 0x4 ADD PUSH2 0xD0 SWAP1 PUSH2 0x35A JUMP JUMPDEST PUSH1 0x40 MLOAD DUP1 SWAP2 SUB SWAP1 REVERT JUMPDEST PUSH8 0x1BC16D674EC80000 DUP1 CALLVALUE LT ISZERO PUSH2 0x125 JUMPI PUSH1 0x40 MLOAD PUSH32 0x8C379A000000000000000000000000000000000000000000000000000000000 DUP2 MSTORE PUSH1 0x4 ADD PUSH2 0x11C SWAP1 PUSH2 0x33A JUMP JUMPDEST PUSH1 0x40 MLOAD DUP1 SWAP2 SUB SWAP1 REVERT JUMPDEST PUSH1 0x1 PUSH1 0x0 PUSH1 0x14 PUSH2 0x100 EXP DUP2 SLOAD DUP2 PUSH1 0xFF MUL NOT AND SWAP1 DUP4 PUSH1 0x1 DUP2 GT ISZERO PUSH2 0x14B JUMPI PUSH2 0x14A PUSH2 0x3E4 JUMP JUMPDEST JUMPDEST MUL OR SWAP1 SSTORE POP PUSH1 0x0 DUP1 PUSH1 0x0 DUP1 SLOAD SWAP1 PUSH2 0x100 EXP SWAP1 DIV PUSH20 0xFFFFFFFFFFFFFFFFFFFFFFFFFFFFFFFFFFFFFFFF AND PUSH20 0xFFFFFFFFFFFFFFFFFFFFFFFFFFFFFFFFFFFFFFFF AND CALLVALUE PUSH1 0x40 MLOAD PUSH2 0x197 SWAP1 PUSH2 0x2E1 JUMP JUMPDEST PUSH1 0x0 PUSH1 0x40 MLOAD DUP1 DUP4 SUB DUP2 DUP6 DUP8 GAS CALL SWAP3 POP POP POP RETURNDATASIZE DUP1 PUSH1 0x0 DUP2 EQ PUSH2 0x1D4 JUMPI PUSH1 0x40 MLOAD SWAP2 POP PUSH1 0x1F NOT PUSH1 0x3F RETURNDATASIZE ADD AND DUP3 ADD PUSH1 0x40 MSTORE RETURNDATASIZE DUP3 MSTORE RETURNDATASIZE PUSH1 0x0 PUSH1 0x20 DUP5 ADD RETURNDATACOPY PUSH2 0x1D9 JUMP JUMPDEST PUSH1 0x60 SWAP2 POP JUMPDEST POP SWAP2 POP SWAP2 POP PUSH1 0x1 PUSH2 0x1E9 JUMPI PUSH1 0x0 DUP1 REVERT JUMPDEST PUSH32 0xBA951166D42EB077151BDECB7CF6027562F04F0143B0C141B1BB0A33EEF5D693 CALLER CALLVALUE PUSH1 0x40 MLOAD PUSH2 0x21A SWAP3 SWAP2 SWAP1 PUSH2 0x311 JUMP JUMPDEST PUSH1 0x40 MLOAD DUP1 SWAP2 SUB SWAP1 LOG1 POP POP POP JUMP JUMPDEST PUSH1 0x0 DUP1 SLOAD SWAP1 PUSH2 0x100 EXP SWAP1 DIV PUSH20 0xFFFFFFFFFFFFFFFFFFFFFFFFFFFFFFFFFFFFFFFF AND DUP2 JUMP JUMPDEST PUSH2 0x254 DUP2 PUSH2 0x3A8 JUMP JUMPDEST DUP3 MSTORE POP POP JUMP JUMPDEST PUSH2 0x263 DUP2 PUSH2 0x396 JUMP JUMPDEST DUP3 MSTORE POP POP JUMP JUMPDEST PUSH1 0x0 PUSH2 0x276 PUSH1 0x1A DUP4 PUSH2 0x385 JUMP JUMPDEST SWAP2 POP PUSH2 0x281 DUP3 PUSH2 0x413 JUMP JUMPDEST PUSH1 0x20 DUP3 ADD SWAP1 POP SWAP2 SWAP1 POP JUMP JUMPDEST PUSH1 0x0 PUSH2 0x299 PUSH1 0x13 DUP4 PUSH2 0x385 JUMP JUMPDEST SWAP2 POP PUSH2 0x2A4 DUP3 PUSH2 0x43C JUMP JUMPDEST PUSH1 0x20 DUP3 ADD SWAP1 POP SWAP2 SWAP1 POP JUMP JUMPDEST PUSH1 0x0 PUSH2 0x2BC PUSH1 0x0 DUP4 PUSH2 0x37A JUMP JUMPDEST SWAP2 POP PUSH2 0x2C7 DUP3 PUSH2 0x465 JUMP JUMPDEST PUSH1 0x0 DUP3 ADD SWAP1 POP SWAP2 SWAP1 POP JUMP JUMPDEST PUSH2 0x2DB DUP2 PUSH2 0x3DA JUMP JUMPDEST DUP3 MSTORE POP POP JUMP JUMPDEST PUSH1 0x0 PUSH2 0x2EC DUP3 PUSH2 0x2AF JUMP JUMPDEST SWAP2 POP DUP2 SWAP1 POP SWAP2 SWAP1 POP JUMP JUMPDEST PUSH1 0x0 PUSH1 0x20 DUP3 ADD SWAP1 POP PUSH2 0x30B PUSH1 0x0 DUP4 ADD DUP5 PUSH2 0x24B JUMP JUMPDEST SWAP3 SWAP2 POP POP JUMP JUMPDEST PUSH1 0x0 PUSH1 0x40 DUP3 ADD SWAP1 POP PUSH2 0x326 PUSH1 0x0 DUP4 ADD DUP6 PUSH2 0x25A JUMP JUMPDEST PUSH2 0x333 PUSH1 0x20 DUP4 ADD DUP5 PUSH2 0x2D2 JUMP JUMPDEST SWAP4 SWAP3 POP POP POP JUMP JUMPDEST PUSH1 0x0 PUSH1 0x20 DUP3 ADD SWAP1 POP DUP2 DUP2 SUB PUSH1 0x0 DUP4 ADD MSTORE PUSH2 0x353 DUP2 PUSH2 0x269 JUMP JUMPDEST SWAP1 POP SWAP2 SWAP1 POP JUMP JUMPDEST PUSH1 0x0 PUSH1 0x20 DUP3 ADD SWAP1 POP DUP2 DUP2 SUB PUSH1 0x0 DUP4 ADD MSTORE PUSH2 0x373 DUP2 PUSH2 0x28C JUMP JUMPDEST SWAP1 POP SWAP2 SWAP1 POP JUMP JUMPDEST PUSH1 0x0 DUP2 SWAP1 POP SWAP3 SWAP2 POP POP JUMP JUMPDEST PUSH1 0x0 DUP3 DUP3 MSTORE PUSH1 0x20 DUP3 ADD SWAP1 POP SWAP3 SWAP2 POP POP JUMP JUMPDEST PUSH1 0x0 PUSH2 0x3A1 DUP3 PUSH2 0x3BA JUMP JUMPDEST SWAP1 POP SWAP2 SWAP1 POP JUMP JUMPDEST PUSH1 0x0 PUSH2 0x3B3 DUP3 PUSH2 0x3BA JUMP JUMPDEST SWAP1 POP SWAP2 SWAP1 POP JUMP JUMPDEST PUSH1 0x0 PUSH20 0xFFFFFFFFFFFFFFFFFFFFFFFFFFFFFFFFFFFFFFFF DUP3 AND SWAP1 POP SWAP2 SWAP1 POP JUMP JUMPDEST PUSH1 0x0 DUP2 SWAP1 POP SWAP2 SWAP1 POP JUMP JUMPDEST PUSH32 0x4E487B7100000000000000000000000000000000000000000000000000000000 PUSH1 0x0 MSTORE PUSH1 0x21 PUSH1 0x4 MSTORE PUSH1 0x24 PUSH1 0x0 REVERT JUMPDEST PUSH32 0x4E6F7420656E6F7567682065746865722070726F76696465642E000000000000 PUSH1 0x0 DUP3 ADD MSTORE POP JUMP JUMPDEST PUSH32 0x43757272656E746C79206F636375706965642E00000000000000000000000000 PUSH1 0x0 DUP3 ADD MSTORE POP JUMP JUMPDEST POP JUMP INVALID LOG2 PUSH5 0x6970667358 0x22 SLT KECCAK256 SWAP1 PUSH14 0x427282A6939DC41253EFF184F3A5 DUP4 MSTORE LOG2 DUP7 0xB8 JUMP PUSH24 0xFCFC559A786A90B2AC64736F6C6343000807003300000000 "
				},
				"gasEstimates": {
					"creation": {
						"codeDepositCost": "236400",
						"executionCost": "48890",
						"totalCost": "285290"
					},
					"external": {
						"book()": "infinite",
						"owner()": "2511"
					}
				},
				"methodIdentifiers": {
					"book()": "05a8da72",
					"owner()": "8da5cb5b"
				}
			},
			"storageLayout": {
				"storage": [
					{
						"astId": 3,
						"contract": "contracts/HotelRoom.sol:HotelRoom",
						"label": "owner",
						"offset": 0,
						"slot": "0",
						"type": "t_address_payable"
					},
					{
						"astId": 9,
						"contract": "contracts/HotelRoom.sol:HotelRoom",
						"label": "CurrentStatuses",
						"offset": 20,
						"slot": "0",
						"type": "t_enum(Statuses)6"
					}
				],
				"types": {
					"t_address_payable": {
						"encoding": "inplace",
						"label": "address payable",
						"numberOfBytes": "20"
					},
					"t_enum(Statuses)6": {
						"encoding": "inplace",
						"label": "enum HotelRoom.Statuses",
						"numberOfBytes": "1"
					}
				}
			},
			"userdoc": {
				"kind": "user",
				"methods": {},
				"version": 1
			}
		}
	}
}